:100000000C94DD000C9405010C9405010C94050181
:100010000C9405010C9405010C9405010C94050148
:100020000C9405010C9405010C9405010C94050138
:100030000C9405010C9405010C9405010C94050128
:100040000C94AE0D0C9405010C943C030C94160317
:100050000C9405010C9405010C9405010C94050108
:100060000C94AE040C940501F20E0F0F0F0F0D0F40
:100070000F0FE00E0F0F0F0F0F0FE30E0F0F0F0FED
:10008000FB0E0A0F070F0F0F0F0F0F0F040F541166
:100090007811A511D8110C12831338159113E81398
:1000A0006D14A514EB14EB14A5146D14E81391133F
:1000B00092159D15B015B715BF15D915BF15D915D2
:1000C000BF15D915BF15D915BF15DF1592159D158B
:1000D000B015B715BF15D915BF15D915BF15D91549
:1000E000BF15D915BF15DF15430828083308380890
:1000F0003D08480853085B08610867086D088D08CB
:1001000090089308960899089C089F08A208A508DB
:10011000A808AB08AE088D089008930896089908BF
:100120009C089F08A208A508A808AB080509300983
:100130007509BC09FA09430A7B0A30303A32393A68
:1001400030390041707220323920323031390000AC
:100150000000002300260029001F1C1F1E1F1E1F59
:100160001F1E1F1E1F00000000240027002A000081
:100170000000080002010000030407000000000066
:100180000000000102040810204080010204081051
:100190002001020408102000000000250028002B88
:1001A0000004040404040404040202020202020320
:1001B0000303030303001B170D1711241FBECFEF0A
:1001C000D8E0DEBFCDBF12E0A0E0B1E0ECEBF7E39A
:1001D00002C005900D92AE33B107D9F724E0AEE32B
:1001E000B2E001C01D92AB3FB207E1F710E0CCEDE9
:1001F000D0E004C02197FE010E94A51ACB3DD10793
:10020000C9F70E94F80D0C94D11B0C940000CF92FA
:10021000DF92EF92FF920F931F93CF93DF936C01C6
:100220007A018B01C0E0D0E0CE15DF0581F0D80166
:100230006D918D01D601ED91FC910190F081E02D41
:10024000C6010995892B11F02196EECF7E01C701D9
:10025000DF91CF911F910F91FF90EF90DF90CF90A2
:100260000895FC01538D448D252F30E0842F90E0BC
:10027000821B930B541710F0CF96089501970895A1
:10028000FC01918D828D981761F0828DDF01A80F9E
:10029000B11D5D968C91928D9F5F9F73928F90E0C0
:1002A00008958FEF9FEF0895FC01918D828D98172F
:1002B00031F0828DE80FF11D858D90E008958FEF6C
:1002C0009FEF0895FC01918D228D892F90E0805C35
:1002D0009F4F821B91098F73992708958EE093E0B9
:1002E0000E94620121E0892B09F420E0822F089509
:1002F000FC01848DDF01A80FB11DA35ABF4F2C91C3
:10030000848D90E001968F739927848FA689B78991
:100310002C93A089B1898C91837080648C93938D88
:10032000848D981306C00288F389E02D80818F7D2B
:1003300080830895EF92FF920F931F93CF93DF93E3
:10034000EC0181E0888F9B8D8C8D981305C0E88926
:10035000F989808185FD26C0F62E0B8D10E00F5F98
:100360001F4F0F731127E02E8C8DE8120CC00FB6B3
:1003700007FCFACFE889F989808185FFF5CFCE01A6
:100380000E947801F1CF8B8DFE01E80FF11DE35A39
:10039000FF4FF0829FB7F8940B8FEA89FB89808129
:1003A00080620AC09FB7F894EE89FF896083E8896C
:1003B000F98980818370806480839FBF81E090E0B1
:1003C000DF91CF911F910F91FF90EF900895CF9300
:1003D000DF93EC01888D8823C9F0EA89FB8980814D
:1003E00085FD05C0A889B9898C9186FD0FC00FB61F
:1003F00007FCF5CF808185FFF2CFA889B9898C9160
:1004000085FFEDCFCE010E947801E7CFDF91CF913C
:10041000089580E090E0892B29F00E946E018111FF
:100420000C940000089585ED8093BC008091BC0081
:1004300084FDFCCF10920D03089540917602262F83
:1004400030E0240F311D21323105DCF420910D0301
:100450002430C9F4FC0180E090E0861758F4309114
:1004600076022191DC01AA5ABD4FA30FB11D2C9336
:100470000196F3CF80917602680F6093760280E058
:10048000089581E0089582E00895089508950895FB
:10049000E091A2028091A102E81730F4F0E0E95364
:1004A000FD4F808190E008958FEF9FEF0895909128
:1004B000A2028091A102981750F4E92FF0E0E953CD
:1004C000FD4F208130E09F5F9093A20202C02FEF8A
:1004D0003FEFC90108958091A10290E02091A2020E
:1004E000821B91090895CF92DF92EF92FF920F93B2
:1004F0001F93CF93DF937C01CB018A012091A3024C
:10050000222389F0EB016B01C40ED51ECC15DD054D
:1005100069F06991D701ED91FC910190F081E02D96
:10052000C7010995F3CF642F0E941D02C801DF9116
:10053000CF911F910F91FF90EF90DF90CF90089592
:10054000CF93DF931F92CDB7DEB769832091A302CB
:100550002223D1F02091C602203240F021E030E089
:10056000FC013383228380E090E015C08091A402D7
:10057000E82FF0E0EB55FD4F998190838F5F8093DA
:10058000A4028093C60205C061E0CE0101960E94DC
:100590001D0281E090E00F90DF91CF9108950895C2
:1005A00080E090E008950E94CC1BAF92BF92CF9262
:1005B000DF92EF92FF920F931F93CF93DF93CDB70C
:1005C000DEB728970FB6F894DEBF0FBECDBF0E94EE
:1005D000AE1920E030E041E050E00E940E1A6B01BD
:1005E0007C01CB010E94B70A162FA72EB82E092F27
:1005F000D701C601AA27BB279058AF4FBF4F0E9413
:10060000B70A212F3A2D4B2D502F28960FB6F8946C
:10061000DEBF0FBECDBFDF91CF911F910F91FF9035
:10062000EF90DF90CF90BF90AF9008951F920F9200
:100630000FB60F9211242F933F934F935F936F93B5
:100640007F938F939F93AF93BF93EF93FF938EE02E
:1006500093E00E947801FF91EF91BF91AF919F913C
:100660008F917F916F915F914F913F912F910F905B
:100670000FBE0F901F9018951F920F920FB60F92FA
:1006800011242F938F939F93EF93FF93E0911E0379
:10069000F0911F038081E0912403F091250382FDF6
:1006A00012C09081809127038F5F8F732091280360
:1006B000821751F0E0912703F0E0E25FFC4F958F45
:1006C0008093270301C08081FF91EF919F918F91CB
:1006D0002F910F900FBE0F901F9018957F928F92C1
:1006E0009F92AF92BF92CF92DF92EF92FF920F93C1
:1006F0001F93CF93DF93FC01828193816817790761
:1007000008F053C04A01AA24BB24782CC32ED42E4F
:10071000E52EFF24BC2DA22F8781882361F0889EBF
:1007200040011124792C8C9D60011124BD2D829FE4
:1007300070011124AF2D9585D285E084F1849D133D
:1007400008C0CB01880F991F680F791F6E0D7F1DA0
:100750001CC0660F771F660F771F6E0D7F1D052F5C
:100760001127222733277B01E90EF11C811102C0DA
:10077000202F09C090E0809F6001819FD00C909F46
:10078000D00C11242D2DE701288382859B01280F91
:10079000311DE90178828385EB01C80FD11DB88333
:1007A0008485FB01E80FF11DA083DF91CF911F919C
:1007B0000F91FF90EF90DF90CF90BF90AF909F9000
:1007C0008F907F900895CF92DF92EF92FF920F93D8
:1007D0001F93CF93DF93CDB7DEB729970FB6F89469
:1007E000DEBF0FBECDBF8C01DC0118968D919C91B0
:1007F0001997892B09F4A3C00E947D0DF801C684C6
:10080000D784E088F188DC01CB018C199D09AE0901
:10081000BF098C329140A105B10570F3F894D8015D
:1008200014968D919C9115979A8389831896ED91D2
:10083000FC9119977F01BFEFEB1AFB0A8081898732
:10084000F80190810288F389E02DD80154968C91AB
:10085000992309F430C09081982B988790818095D6
:1008600089238F838F818C8388E08B8358856F8168
:1008700049853B812C8189819A81D701508347FD2D
:10088000252F3A952083262F39F0441F00C0000001
:100890006083000000C0F2CF38E04D91608300001B
:1008A000019761F7D8015396FC93EE9352974987CD
:1008B0003B832C833AC09081982B988790818095B8
:1008C00089238F838F818E8388E08D8358856F8104
:1008D00049853D812E8189819A81D701508347FDC9
:1008E000252F00C000C0208300C000C000C000C091
:1008F00000C060830000262F3A9541F0441F00009D
:1009000000C000C000C000C000C0E8CF38E04D917A
:1009100000C0608300C0019709F7D8015396FC938B
:10092000EE93529749873D832E839A8389837894E7
:100930000E947D0DF80166877787808B918B2996C1
:100940000FB6F894DEBF0FBECDBFDF91CF911F91E0
:100950000F91FF90EF90DF90CF9008951F920F922C
:100960000FB60F9211242F933F934F935F936F9382
:100970007F938F939F93AF93BF93EF93FF93809158
:10098000B900887F803609F49CC068F5883209F484
:100990005BC090F4803109F454C038F4882309F422
:1009A000F6C0883009F44DC0F6C0883109F44CC057
:1009B000803209F45DC0EFC0803409F468C048F4A7
:1009C000803309F455C0883309F0E5C080930B03E8
:1009D000D8C0803509F44FC0883509F45DC088342B
:1009E00009F0D9C0D6C0883909F4C7C0A8F488373F
:1009F00009F467C038F4883609F463C0803709F415
:100A000060C0C9C0883809F4B8C0803909F45FC033
:100A1000803809F0C0C05BC0803B09F486C038F460
:100A2000803A09F466C0883A09F47FC0B4C0803CBB
:100A300009F4A7C0883C09F4A4C0883B09F48AC023
:100A4000AAC08091080310C090910A038091090305
:100A5000981770F5E0910A0381E08E0F80930A03E6
:100A6000F0E0E951FD4F80818093BB0085EC86C0AA
:100A700080930B038EC0E0910A0381E08E0F809378
:100A80000A038091BB00F0E0E951FD4F8083909113
:100A90000A03809109036EC0E0910A0381E08E0F82
:100AA00080930A038091BB00F0E0E951FD4F808301
:100AB00080910C0381116DC081E08093070384EA6B
:100AC00061C083E080930D0310929802CFCF809194
:100AD0009802803208F051C0E091980281E08E0FB8
:100AE000809398028091BB00F0E0E858FD4F80832E
:100AF000BDCF85EC8093BC0010920D0380919802CD
:100B0000803230F4E0919802F0E0E858FD4F108216
:100B10006091980270E0E0913E02F0913F0288E718
:100B200092E009951092980236C084E080930D03FC
:100B30001092770210927602E0914002F091410209
:100B4000099580917602811105C081E0809376023B
:100B500010925602E091770281E08E0F8093770227
:100B6000F0E0EA5AFD4F80818093BB0090917702BC
:100B700080917602981708F479CF85E88093BC00BD
:100B80000AC085EC8093BC0010920D0304C0109243
:100B90000B030E941302FF91EF91BF91AF919F91C0
:100BA0008F917F916F915F914F913F912F910F9016
:100BB0000FBE0F901F9018955F926F927F928F9249
:100BC0009F92AF92BF92CF92DF92EF92FF920F93DC
:100BD0001F93CF93DF93EC0181E08093A30288E61B
:100BE0008093C5021092A4021092C60260E08BEAC4
:100BF00093E00E94A0020E94240C67E088E60E9415
:100C0000E20B1092A2028093A1028BEA93E00E9471
:100C100057028F77982F92959F702AEFF22E782E99
:100C20009F9D700C11248BEA93E00E9457029C0157
:100C3000332744E0359527954A95E1F7182FF29E22
:100C4000100D11248BEA93E00E9457029C01332778
:100C500054E0359527955A95E1F7082FF29E000D3F
:100C600011248BEA93E00E9457028BEA93E00E94E2
:100C70005702BC017727E4E075956795EA95E1F79F
:100C8000582EF69E500C11248BEA93E00E945702D6
:100C90009C013327F4E035952795FA95E1F7682E06
:100CA000F29E600C11248BEA93E00E9457029C0193
:100CB0003327A4E035952795AA95E1F7F29E800D9C
:100CC0001124C82ED12C760190E3E91A98EFF90A85
:100CD000888369825A820B831C837D822091420221
:100CE000222309F4B4C030E0A0E1BEE00E94621A01
:100CF0004B015C01452D50E0E9E5F1E081E086150E
:100D000030F49491490F511D8F5F3196F8CF82E0F6
:100D1000861538F4C60183709927892B11F44F5F2B
:100D20005F4F9DECE91A97E0F90AF694E794F69480
:100D3000E7942DE631E0C29EC001C39E900DD29E85
:100D4000900D11249701280F391F21503109240FCC
:100D5000351FA8E1B0E00E94621A9B01AC01200F90
:100D6000311D411D511DACE3B0E00E942D1A9B01C5
:100D7000AC01210F311D411D511D0E942D1ADC01B6
:100D8000CB01870D911DA11DB11D880E991EAA1EB4
:100D9000BB1E9CE3C92ED12CE12CF12CC501B40162
:100DA000A70196010E94401A162FCA01B901A70196
:100DB00096010E94401A062FC501B40120E13EE0D1
:100DC00040E050E00E94401ACA01B90128E130E039
:100DD00040E050E00E94401AF62EC501B40120E820
:100DE00031E541E050E00E94401A40E0542F53703A
:100DF00081E009F080E061E0640F90E0FC01E359DC
:100E0000FE4F2E173F0710F481E012C0281B390B4C
:100E10002D563140462FEACF823009F4EF5FF0E0E3
:100E200091E0980F2E173F0758F02E1B3F0B892F8C
:100E3000E82FF0E0E85AFE4FE4915111F0CFECCFEB
:100E4000488389832F5F2A83FB820C831D83CE0115
:100E5000DF91CF911F910F91FF90EF90DF90CF9096
:100E6000BF90AF909F908F907F906F905F9008950C
:100E7000CF92DF92EF92FF920F931F93CF938C014B
:100E80006A017B01FC01C085F8012185868197817B
:100E90002C1740F06C2F70E0A70196010E946E03A2
:100EA000CF5FF2CFCF911F910F91FF90EF90DF9026
:100EB000CF900C94E303FC0180819181892B59F040
:100EC0001182108212821482138240E050E0BA0133
:100ED000CF010C943807089587EA94E00E945B07DD
:100EE00081EB94E00E945B078BEB94E00E945B0730
:100EF00083E994E00E945B078DE994E00E945B0720
:100F000085E794E00E945B078FE794E00E945B070F
:100F100089E894E00E945B0781E694E00E945B0709
:100F20008BE694E00E945B0789E394E00E945B07F4
:100F300083E494E00E945B078DE494E00E945B07E9
:100F400087E594E00E945B078BE194E00E945B07D9
:100F500085E294E00E945B078FE294E00E945B07C9
:100F600087E094E00E945B0781E194E00E945B07C8
:100F700089EE93E00E945B0783EF93E00E945B079A
:100F80008DEF93E00E945B078FED93E00E945B077B
:100F900085ED93E00E945B078BEC93E00E945B077A
:100FA00087EB93E00E945B0781EC93E00C945B0776
:100FB000CF93DF93EC0182E090E0998388836A838A
:100FC0001C820E94AE1920E031E040E050E00E9417
:100FD0000E1A6D83DF91CF910895CF93DF93C82FC1
:100FE000D62F87E292E00E94920B8C2F0E94A40BD6
:100FF0006AE38EE093E00E949A018D2F0E94A40B79
:101000008FE092E00E94920BC0930001D093010107
:1010100080E00E94D2080E946C0768E270E087EAD4
:1010200094E00E94D80768E270E081EB94E00E94AF
:10103000D8078D2F65E00E94711A90E0FC0131976E
:10104000EB30F10508F05CC0EC58FF4F0C94A51A8A
:1010500068E270E08FE794E00E94D80768E270E0F1
:101060008BE694E019C068E270E08DE994E014C06A
:1010700068E270E08BEB94E0EFCF68E270E08BEB1E
:1010800094E00E94D80768E270E085E794E0E4CF3E
:1010900068E270E083E994E00E94D80768E270E0BB
:1010A00089E394E02BC0CF5F68E270E08BEB94E0C3
:1010B0000E94D80713C0CF5F68E270E08BEB94E02A
:1010C00011C0CF5F68E270E08DE994E011C0CF5F9E
:1010D00068E270E08FE794E005C0CF5F68E270E0FF
:1010E00085E794E00E94D80768E270E08BE694E020
:1010F0000E94D80768E270E083E494E00E94D80779
:101100008C2F90E0FC01319768E270E0E731F10547
:1011100028F5E158FF4F0C94A51A8DE494E020C007
:101120008FE294E01DC08DEF93E01AC083EF93E04F
:1011300017C085E294E014C089EE93E011C08BECF7
:1011400093E00EC081EC93E00BC085ED93E008C006
:101150008FED93E005C087E094E002C081E194E068
:101160000E94D80768E270E087EB93E0DF91CF91AF
:101170000C94D807CF93DF9300D000D000D0CDB728
:10118000DEB7CE0101960E94DC056D818C810E9444
:10119000ED0726960FB6F894DEBF0FBECDBFDF91E8
:1011A000CF910895CF932091440230914502232B93
:1011B00071F0C82F1092450210924402109243021F
:1011C0000E94260BCC2319F0CF910C94BA08CF9132
:1011D0000895CF93DF93CDB7DEB728970FB6F89475
:1011E000DEBF0FBECDBF20914402309145022230B8
:1011F000310509F080C1FC013297E730F10508F0B4
:101200007AC1EA56FF4F0C94A51A83E090E09093C0
:10121000C6048093C50488E090E09093CA0480934C
:10122000C9048FEF90E09093D6048093D504109278
:10123000D8041092D7041092C8041092C7041092D8
:10124000CD041092CE041092CF041092D0041092CC
:10125000D1041092D2041092D3041092D40488C006
:1012600084E090E09093C6048093C50484E690E007
:101270009093CA048093C9048091DE048F5F90919B
:10128000DD04891B90E09093D6048093D5041092DE
:10129000D8041092D7041092C8041092C7040E9478
:1012A000D50229833A834B835C836D837E838F834E
:1012B000988789819A81AB81BC818093CD0490937A
:1012C000CE04A093CF04B093D0048D819E81AF81D2
:1012D000B8858093D1049093D204A093D304B093A3
:1012E000D4041092DA0481E003C185E090E0909389
:1012F000C6048093C50488E090E09093CA0480936C
:10130000C9048091DE048F5F9091DD04891B90E019
:10131000880F991F9093D6048093D5041092D80417
:101320001092D7041092C8041092C7040E94D502EC
:1013300029833A834B835C836D837E838F83988775
:1013400089819A81AB81BC818093CD049093CE0436
:10135000A093CF04B093D0048D819E81AF81B885D6
:101360008093D1049093D204A093D304B093D40477
:101370001092DA0485E0BCC086E090E09093C60449
:101380008093C5048EE190E09093CA048093C904D1
:101390008091DE048F5F9091DD04891B90E00197BE
:1013A000880F991F9093D6048093D5041092D80487
:1013B0001092D7041092C8041092C7040E94AE196C
:1013C00020E030E041E050E00E940E1ACB010E9484
:1013D000B70A6093CD047093CE048093CF049093AA
:1013E000D0041092D1041092D2041092D30410921F
:1013F000D40445C08091DE048F5F9091DD04891B89
:10140000883708F483C087E090E09093C604809307
:10141000C50484EF91E09093CA048093C9048AE0E4
:1014200090E09093D6048093D5041092D804109243
:10143000D7041092C8041092C7040E94D5022983D1
:101440003A834B835C836D837E838F839887898106
:101450009A81AB81BC818093CD049093CE04A093FC
:10146000CF04B093D0048D819E81AF81B8858093E5
:10147000D1049093D204A093D304B093D4041092D7
:10148000DA0483E035C08091DE048F5F9091DD0443
:10149000891B8837D8F188E090E09093C604809348
:1014A000C50485E190E09093CA048093C90480EF5D
:1014B00090E09093D6048093D5041092D8041092B3
:1014C000D7041092C8041092C7041092CD04109251
:1014D000CE041092CF041092D0041092D104109236
:1014E000D2041092D3041092D4041092DA0484E04F
:1014F0008093D9040BC081E028960FB6F894DEBF24
:101500000FBECDBFDF91CF910C94D20828960FB6B5
:10151000F894DEBF0FBECDBFDF91CF910895CF937A
:10152000DF93EC01888199810297F0F09B81809193
:101530004602890F8B839A818917B0F01B829D81A7
:101540008C81890F21E031E0482F429FC001439FE9
:10155000900D11240E94B70AAB01BC01CE010E947C
:1015600038078C818F5F8C83DF91CF9108950F9323
:101570001F939C01AAEFB5E00E94621ADC01CB0127
:101580009058AF4FBF4FCD01BB2797FDB095AB2F04
:101590008E3F01E0900760F48F3F910518F4682FAB
:1015A00080E029C06EEF962F981B80E06FEF24C07B
:1015B0008C3F13E0910760F48D3F42E0940718F4EC
:1015C0008E5F6FEF03C06CEF681B8FEF90E014C06D
:1015D0008A3F05E0900769F08B3F14E0910728F4FB
:1015E00094E0980F8FEF60E007C06AEF681B862FCA
:1015F00001C080E060E09FEF292F30E0E62FF0E0AF
:10160000482F50E0CF01A0E0B0E0BA2FA92F982FCB
:1016100088278827AA27BB2760E070E0482B592B32
:101620006A2B7B2BC901A0E0B0E0DC019927882759
:1016300088279927BB278A019B01082B192B2A2B66
:101640003B2BC901B8011F910F910895CF93809151
:10165000C5049091C604892B09F442C01092C604B7
:101660001092C5041092CA041092C9041092D604B4
:101670001092D5041092D8041092D7041092C80486
:101680001092C7041092CC041092CB041092CD0497
:101690001092CE041092CF041092D0041092D10474
:1016A0001092D2041092D3041092D4041092DA044F
:1016B0001092D904C091DD042091DE048091DB04F6
:1016C0009091DC042C1748F06C2F70E020E030E0A3
:1016D000A9010E946E03CF5FEFCFCF910C94E3037B
:1016E000CF910895CF93DF939091D9049923B9F0C6
:1016F0008091DA048F5F8093DA04891780F0C091BB
:10170000C504D091C6040E94260BE091DF04F0913D
:10171000E004309721F0CE01DF91CF910994DF9161
:10172000CF910895009769F0FC0101900020E9F73E
:101730003197AF01481B590BBC018EE093E00C942C
:10174000070180E090E00895CF92DF92EF92FF9240
:101750000F931F93CF93DF93CDB7DEB7A1970FB64B
:10176000F894DEBF0FBECDBF282F30E040E050E040
:1017700019A28E010F5D1F4F8AE0C82ED12CE12CDB
:10178000F12CCA01B901A70196010E94401A605DBF
:10179000F80162938F01211531054105510589F743
:1017A000CF010E94920BA1960FB6F894DEBF0FBE38
:1017B000CDBFDF91CF911F910F91FF90EF90DF9000
:1017C000CF90089590910D039111FCCF91E09093EB
:1017D0000D0390930C032FEF20930B0310920A0339
:1017E000260F209309039093080390910803880F14
:1017F000892B8093080380910703813061F4109254
:101800000703809108038093BB008091BC0083FD97
:10181000F8CF85EC01C085EE8093BC0080910D036C
:101820008130E1F380910A03861710F460910A0376
:10183000A7EEB2E0E7ECF2E080E0861721F09D91A0
:1018400091938F5FFACF08953091C602313208F03C
:101850004BC080910D038111FCCF9091C50222E015
:1018600020930D0321E020930C032FEF20930B0313
:1018700010920A0330930903E5EAF2E0A7EEB2E022
:1018800020E0321721F041914D932F5FFACF109253
:10189000080320910803990F922B909308039091CD
:1018A0000703913061F4109207039091080390931D
:1018B000BB009091BC0093FDF8CF95EC01C095EE74
:1018C0009093BC0090910D039230E1F390910B0343
:1018D0009F3F79F080910B03803241F080910B03A0
:1018E000803331F084E005C081E003C082E001C0B4
:1018F00083E01092A4021092C6021092A3020895EF
:101900002091C7043091C8048091D7049091D804E5
:10191000232B89F401969093D8048093D7042091C7
:10192000D5043091D60482179307B8F01092D804EA
:101930001092D70410C001979093D8048093D704D5
:10194000892B59F48091D5049091D60401979093F6
:10195000D8048093D7040C94720B0895EBE1F4E063
:1019600081E090E0918380831482158244E958E1FC
:1019700068EF70E0CF010C94380781E08093A302F8
:1019800088E68093C5021092A4021092C6026FE00E
:101990008BEA93E00E94A0020E94240C61E088E69A
:1019A0000E94E20B1092A2028093A1028BEA93E0C4
:1019B0000E9457020895CF93DF930E94920BEC018F
:1019C0008FE092E00E94920B8C0F9D1FDF91CF91D0
:1019D0000895833081F028F4813099F08230A1F0AD
:1019E00008958730A9F08830B9F08430D1F480911F
:1019F00080008F7D03C0809180008F77809380006E
:101A0000089584B58F7702C084B58F7D84BD089515
:101A10008091B0008F7703C08091B0008F7D80935C
:101A2000B00008951F93CF93DF93282F30E0F90182
:101A3000E159FE4F8491F901ED57FE4FD491F90120
:101A4000EF55FE4FC491CC23C1F0162F81110E9497
:101A5000E90CEC2FF0E0EE0FFF1FE956FE4FA591C9
:101A6000B4919FB7F894111104C08C91D095D823EC
:101A700002C0EC91DE2BDC939FBFDF91CF911F91D1
:101A80000895CF93DF9390E0FC01ED57FE4F249132
:101A9000FC01EF55FE4F8491882361F190E0880F9F
:101AA000991FFC01EB59FE4FC591D491FC01E956F9
:101AB000FE4FA591B491611109C09FB7F894888138
:101AC000209582238883EC912E230BC0623061F431
:101AD0009FB7F8948881322F309583238883EC91C7
:101AE0002E2B2C939FBF06C08FB7F894E8812E2B26
:101AF00028838FBFDF91CF9108953FB7F8948091ED
:101B00009D0290919E02A0919F02B091A00226B5E5
:101B1000A89B05C02F3F19F00196A11DB11D3FBF25
:101B2000BA2FA92F982F8827820F911DA11DB11DB3
:101B3000BC01CD0142E0660F771F881F991F4A95AF
:101B4000D1F708952FB7F8946091990270919A0295
:101B500080919B0290919C022FBF08951F920F923B
:101B60000FB60F9211242F933F938F939F93AF93B0
:101B7000BF938091990290919A02A0919B02B0919B
:101B80009C023091F60423E0230F2D3720F40196B8
:101B9000A11DB11D05C026E8230F0296A11DB11D90
:101BA0002093F6048093990290939A02A0939B024B
:101BB000B0939C0280919D0290919E02A0919F0201
:101BC000B091A0020196A11DB11D80939D0290933A
:101BD0009E02A0939F02B093A002BF91AF919F91EC
:101BE0008F913F912F910F900FBE0F901F901895DE
:101BF000CF93DF93CDB7DEB764970FB6F894DEBF0F
:101C00000FBECDBF789484B5826084BD84B58160F9
:101C100084BD85B5826085BD85B5816085BD8091B7
:101C20006E00816080936E0010928100809181002F
:101C30008260809381008091810081608093810027
:101C4000809180008160809380008091B1008460E9
:101C50008093B1008091B00081608093B00080914A
:101C60007A00846080937A0080917A008260809309
:101C70007A0080917A00816080937A0080917A0066
:101C8000806880937A001092C100E0911E03F09169
:101C90001F0382E08083E0911A03F0911B031082FE
:101CA000E0911C03F0911D0387E6808310922603C8
:101CB000E0912203F091230386E08083E0912003EA
:101CC000F0912103808180618083E0912003F09175
:101CD0002103808188608083E0912003F0912103BB
:101CE000808180688083E0912003F09121038081CE
:101CF0008F7D80838CEA91E00E94DB0C62E088E0BB
:101D00000E94410D1092A2021092A1021092A40210
:101D10001092C60210920D0381E080930C03109282
:101D2000070361E082E10E94120D61E083E10E94FD
:101D3000120D8091B9008E7F8093B9008091B90017
:101D40008D7F8093B90088E48093B80085E4809308
:101D5000BC0085E492E0909341028093400286E4C7
:101D600092E090933F0280933E020E94BD0C90E06F
:101D7000880F892F881F990B892B09F4F0C088EBF5
:101D800091E00E94DB0C4BE050E063E471E0CE0197
:101D900001960E94051ACE010A960E940017E82EAD
:101DA000E9814E2FEE0F550B660B770BFA01E154CC
:101DB000F109E331F10598F5EC5CFF4F0C94A51A9D
:101DC00022E0F22E2CC08A81813631F08B818E3652
:101DD00031F097E0F92E23C0FF24F39420C086E071
:101DE000F82E1DC08B81823719F0B8E0FB2E17C08A
:101DF000A4E0FA2E14C08B81823719F0F5E0FF2E93
:101E00000EC0E3E0FE2E0BC079E0F72E08C06AE0BA
:101E1000F62E05C05BE0F52E02C04CE0F42ECE019C
:101E200005960E940017A82E48E050E06AE371E092
:101E3000CE0101960E94051ACE0101960E9400175C
:101E4000982ECE0104960E940017882ECE01079688
:101E50000E940017782EBB24B394B092A30228E608
:101E6000C22EC092C5021092A4021092C60260E077
:101E70008BEA93E00E94A0023AE0D32E872D6D2DCD
:101E80000E94711A682F660F860F880F682F670DE2
:101E90008BEA93E00E94A002882D6D2D0E94711A9A
:101EA000682F660F860F880F682F680D8BEA93E006
:101EB0000E94A002892D6D2D0E94711A682F660F55
:101EC000860F880F682F690D8BEA93E00E94A002AD
:101ED00060E08BEA93E00E94A0028A2D6D2D0E94A3
:101EE000711A682F660F860F880F682F6A0D8BEAAC
:101EF00093E00E94A0028F2D6D2D0E94711A682F11
:101F0000660F680F660F6F0D8BEA93E00E94A002C8
:101F10008E2D6D2D0E94711A682F660F680F660F47
:101F20006E0D8BEA93E00E94A0020E94240C0E9496
:101F3000BD0CF82EB092A302C092C5021092A4026A
:101F40001092C6026FE08BEA93E00E94A0026F2D10
:101F50006F778BEA93E00E94A0020E94240C80918C
:101F6000E70487FD08C061E00E94410D60E08091B8
:101F7000E7040E94120D81E08093E2046091E8047E
:101F8000613821F12091E9043091EA04615031F087
:101F900070E08FEF90E80E947D1A02C060E070E070
:101FA000F9014091E5045091E604CF01821B930BA7
:101FB0008417950740F44081469FC001479F900DCC
:101FC00011249193EECF81E88093E804E7E7F1E0F4
:101FD0008491EBE8F1E0E490E9EAF1E0F490FF208D
:101FE00079F081110E94E90CEF2DF0E0EE0FFF1F58
:101FF000E15BFE4FA591B4918C91E82209F07BC67C
:102000000E94A20D6B017C0180914D02811112C0D2
:1020100085EE91E00E94DB0C81E080934D021092EE
:102020004C02C0924802D0924902E0924A02F092D9
:102030004B023BC08091480290914902A0914A0214
:10204000B0914B02A7019601281B390B4A0B5B0B81
:10205000CA01B901603D37E073078105910528F198
:1020600028EE33E040E050E00E94401A2F5F80915C
:102070004C022817D1F020934C02809142028F5FCE
:102080008C3018F48093420202C01092420281EF19
:1020900091E00E94920B809142020E94A40B8FE07B
:1020A00092E00E94920B0E94BA08809144029091A3
:1020B0004502892B09F0BEC00E94A20D6B017C0174
:1020C0008091020190910301A0910401B09105015A
:1020D000A7019601281B390B4A0B5B0BDA01C901DA
:1020E00080319742A105B10508F4A4C082E192E0D5
:1020F0000E94DB0CC0920201D0920301E092040125
:10210000F0920501CE0101960E94DC05FC80ED8075
:102110008F2D0E94A40B6AE38EE093E00E949A0147
:102120008E2D0E94A40B8FE092E00E94920B809172
:102130000001F8120DC025E08E2D622F0E94711A49
:10214000382F809101010E94711A381352C072C059
:102150008F3F09F44EC00E946C070E94260B42E09C
:1021600050E050934502409344020E94A20D6093B8
:102170004E0270934F02809350029093510210923E
:10218000430282E090E09093C6048093C504A4E0EB
:10219000B0E0B093CA04A093C90480E091E09093AA
:1021A000D6048093D5041092D8041092D7041092CC
:1021B000C8041092C7040E94AE1920E031E040E04C
:1021C00050E00E940E1A6093CD047093CE04809369
:1021D000CF049093D0041092D1041092D2041092A4
:1021E000D3041092D4041092DA048AE08093D904C4
:1021F00021C08A818430D1F48B818B31B9F40E9463
:102200006C070E94260B83E090E090934502809338
:1022100044020E94A20D60934E0270934F0280937D
:102220005002909351021092430204C06E2D8F2DE4
:102230000E94ED0780914402909145028130910502
:1022400008F4D5C48330910520F0039709F449C4FC
:10225000CEC4E091C504F091C604E230F10508F463
:10226000C6C42091CB043091CC0480914602909159
:102270004702820F931F9093CC048093CB0420914C
:10228000C9043091CA048217930708F4B0C41092AD
:10229000CC041092CB043297E730F10508F0A7C4C4
:1022A000E95BFF4F0C94A51A9091CD048091D7045F
:1022B000890F282FE1E0F1E02E9FC0012F9F900DA4
:1022C00011240E94B70A4B015C01F090DD042091BB
:1022D000DE048091DB049091DC042F1508F4FCC32C
:1022E0006F2D70E0A50194010E946E03F394EFCF6F
:1022F0009090DD04E090DE04E394E918F12C8091E5
:10230000DE04C090DB04D090DC048915E0F0A92C39
:10231000B12C992D80E0B7010E94911A8091D704C9
:10232000860FA82F41E051E0A49FC001A59F900D0A
:1023300011240E94B70A9B01AC01B501C6010E949D
:102340006E039394DCCFC601C7C3B090DD0483E075
:10235000C82ED12C8091DE04E091DB04F091DC04E6
:102360008B1520F1EB2CF12C8091D7049091D8049F
:102370008E0D9F1DB6010E947D1A892B49F4209174
:10238000CD043091CE044091CF045091D00408C0C8
:102390002091D1043091D2044091D3045091D404BF
:1023A000B701CF010E946E03B394D4CFCF0194C381
:1023B0008091D7049091D8046091D5047091D6048F
:1023C000769567957727A091DD04E091DB04F09185
:1023D000DC048617970760F42091CD043091CE0479
:1023E0004091CF045091D004BC016A0F711D12C0FE
:1023F0008090D1049090D204A090D304B090D404E3
:102400007B01EA0EF11C0E947D1AB701681B790B53
:10241000A5019401CF015AC3B091DD04BC8780911E
:10242000DE042090DB043090DC04EC858E1708F489
:1024300068C18E2E912C2091D7043091D804821639
:10244000930649F08091D5049091D604821B930B9A
:102450008816990649F42091CD043091CE0440911C
:10246000CF045091D00445C1D10112968D919C9119
:1024700013978816990608F00FC11D968C911D9729
:102480001A96AC901A971896ED90FC90199717969B
:102490004C9017971B96BC91BD87C82ED12CF1018B
:1024A000F485FA8B8A116EC03C8523E0329FE00CE4
:1024B000F11C1124442009F44BC0512C612C712CC7
:1024C000F701EB0FF11D608170E0762F6627072E74
:1024D000000C880B990BA30192010E94401AB42FA3
:1024E000A32F922F88278D879E87AF87B88BF70100
:1024F000EC0DFD1D608170E0762F6627072E000C25
:10250000880B990BA30192010E94401AD9019927C7
:102510008827AD84BE84CF84D888A82AB92ACA2A3D
:10252000DB2AF7019A89E90FF11D608170E0762FAF
:102530006627072E000C880B990BA30192010E94BD
:10254000401A76016501C22AD32AE42AF52AA7C0D7
:10255000F701AD85EA0FF11D8081F701EC0DFD1D3E
:10256000A0804A2D50E060E070E0BA015527442772
:10257000582BF701BA89EB0FF11D80816A017B01AD
:10258000C82A8DC0C401880F991F880F991FE80EB3
:10259000F91EEA2DF0E0FC8BEB8B442009F45CC0C3
:1025A000512C612C712CF701EC0DFD1D608170E048
:1025B000762F6627072E000C880B990BA30192013A
:1025C0000E94401AD22ECC24BB24AA24EB89FC8979
:1025D000EE0DFF1D608170E0762F6627072E000C40
:1025E000880B990BA30192010E94401AD9019927E7
:1025F0008827A82AB92ACA2ADB2AF7012A89E20FE2
:10260000F11D608170E0762F6627072E000C880B85
:10261000990BA30192010E94401AA22AB32AC42A4C
:10262000D52AF7013D85E30FF11D608170E0762F1B
:102630006627072E000C880B990BA30192010E94BC
:10264000401AB42FA32F922F882776016501C82A3C
:10265000D92AEA2AFB2A23C0F701EC0DFD1D80814F
:10266000EB89FC89EE0DFF1DA0804A2D50E060E053
:1026700070E0BA0155274427782BF7018A89E80FC3
:10268000F11D8081482BF7019D85E90FF11D8081A7
:102690006A017B01D82A03C0C12CD12C76012E2DD2
:1026A00030E035952795C901330FAA0BBB0BBC0150
:1026B000552744278D2D90E095958795092E000C80
:1026C000AA0BBB0BBA2FA92F982F8827842B952BE9
:1026D000A62BB72BAC2CB12C950135952795A901CC
:1026E000330F660B770B9A01AB01282B392B4A2B42
:1026F0005B2BB401C1010E946E03AC85AF5FAC8758
:102700008ECEC101E9C1E090D704F090D804BAE0C0
:10271000EB16F10408F077C1F701E25BFF4F0C9470
:10272000A51A88E290E00E94AB1A8C01FC0110828D
:1027300081E0818382E0828383E0838384E08483F9
:1027400085E0858386E0868387E0878388E08087CD
:1027500089E081878AE082878BE083878CE08487A9
:1027600083E2858784E286878BE387878CE3808B8F
:1027700083E5818B84E5828B8BE6838B8CE6848B6F
:102780008DE6858B8EE6868B8FE6878B80E7808F44
:1027900081E7818F82E7828F83E7838F84E7848F4D
:1027A00085E7858F86E7868F87E7878F80E680A31A
:1027B0008FE581A388E482A387E483A380E384A3D5
:1027C0008FE285A388E186A387E187A3F8E21AC197
:1027D00080E290E00E94AB1A8C018DE0D8018C93CE
:1027E0008EE011968C9311978FE012968C9312972E
:1027F00080E113968C93139781E114968C93149730
:1028000082E115968C93159783E116968C93169713
:1028100084E117968C93179785E118968C931897F7
:1028200086E119968C93199789E11A968C931A97D9
:102830008EE21B968C931B9781E31C968C931C97BE
:1028400086E41D968C931D9789E41E968C931E97A3
:102850008EE51F968C931F9781E650968C93509728
:1028600082E651968C93519783E652968C935297B9
:1028700084E653968C93539785E654968C9354979D
:1028800086E655968C93559787E656968C93569781
:1028900088E657968C93579789E658968C93589765
:1028A0008AE659968C93599785E55A968C935A9750
:1028B00082E55B968C935B978DE35C968C935C973B
:1028C0008AE35D968C935D9785E25E968C935E9726
:1028D00082E25F968C93B0E27CC088E190E00E9437
:1028E000AB1A8C018AE1F80180838BE181838CE152
:1028F00082838DE183838EE184838FE1858380E20F
:10290000868381E2878386E2808789E381878EE3FD
:10291000828781E5838786E5848787E5858788E5E3
:10292000868789E587878AE5808B8BE5818B8CE5B7
:10293000828B8DE5838B8AE4848B85E4858B82E3AF
:10294000868B8DE2878BF8E15DC080E190E00E948C
:10295000AB1A8C0187E2D8018C9388E211968C9394
:10296000119789E212968C9312978AE213968C93B0
:1029700013978BE214968C9314978CE215968C9394
:10298000159783E316968C93169784E417968C9389
:1029900017978BE418968C9318978CE419968C9360
:1029A00019978DE41A968C931A978EE41B968C9344
:1029B0001B978FE41C968C931C9780E51D968C9337
:1029C0001D978FE31E968C931E9788E31F968C931A
:1029D000B0E1B98B18C088E090E00E94AB1A8C017E
:1029E00084E3F801808385E3818386E3828387E340
:1029F000838380E4848381E4858382E4868383E423
:102A00008783F8E0F98B25E0E216F104A0F4E0FCFE
:102A100009C08090CD049090CE04A090CF04B090D7
:102A2000D0040CC08090D1049090D204A090D30424
:102A3000B090D40403C0812C912C5401D02E780185
:102A4000D7016D917D0170E0A50194018091DB04B7
:102A50009091DC040E946E038E2D8D19B9898B171D
:102A600078F301151105A1F1C8010E94431B30C084
:102A70008091D7049091D8048837910558F068E781
:102A800070E00E947D1A97E7F92EF81A20E030E0F6
:102A9000A90111C0F82E9C01AFEFBFEF0E94621A8E
:102AA00027E730E040E050E00E940E1AC9010E9482
:102AB000B70A9B01AC01EF2DF0E0E05FFE4F808193
:102AC000682F70E08091DB049091DC040E946E031B
:102AD0008091DB049091DC040E94E3030E94800C4F
:102AE00086C00E94A20D6B017C0180914E029091E4
:102AF0004F02A0915002B0915102A7019601281BEC
:102B0000390B4A0B5B0BDA01C901E09143024E2FEE
:102B100050E04C31510508F058C0FA01E85AFF4F17
:102B20000C94A51A803D9740A105B10508F45FC03B
:102B300064E070E089E894E010C0803D9740A10512
:102B4000B10508F454C064E070E081E694E00E94AE
:102B5000D80764E070E087E594E00E94D80735C0AC
:102B6000803D9740A105B10508F441C01FC0803DDC
:102B70009740A105B105D8F10E946C0726C0883C9A
:102B80009105A105B10598F164E070E089E894E051
:102B90000E94D80764E070E081E694E00E94D807C4
:102BA00064E070E087E594E00E94D8070E94AE0CD4
:102BB0000CC0883C9105A105B105C8F0DDCF803A75
:102BC0009F40A105B10598F0D7CF809143028F5F58
:102BD00080934302C0924E02D0924F02E092500284
:102BE000F09251028C3118F081E00E94D20887EAFD
:102BF00094E00E948F0A81EB94E00E948F0A8BEB95
:102C000094E00E948F0A83E994E00E948F0A8DE984
:102C100094E00E948F0A85E794E00E948F0A8FE774
:102C200094E00E948F0A89E894E00E948F0A81E66E
:102C300094E00E948F0A8BE694E00E948F0A89E359
:102C400094E00E948F0A83E494E00E948F0A8DE44E
:102C500094E00E948F0A87E594E00E948F0A8BE13E
:102C600094E00E948F0A85E294E00E948F0A8FE22E
:102C700094E00E948F0A87E094E00E948F0A81E12D
:102C800094E00E948F0A89EE93E00E948F0A83EFFE
:102C900093E00E948F0A8DEF93E00E948F0A8FEDE0
:102CA00093E00E948F0A85ED93E00E948F0A8BECDF
:102CB00093E00E948F0A87EB93E00E948F0A81ECD9
:102CC00093E00E948F0A0E94A20D2091520230913F
:102CD0005302AB01421B530B5093470240934602F1
:102CE0006093520270935302809354029093550262
:102CF0000E9409026BC980914D02882309F4D5C94D
:102D00000E94A20DC0904802D0904902E0904A0271
:102D1000F0904B029B01AC012C193D094E095F0953
:102D200069017A0133E3C316D104E104F10408F424
:102D3000BCC98BED91E00E94DB0C10924D0240ED7E
:102D4000C41647E0D406E104F10408F0AEC980914E
:102D5000440290914502892B09F04EC00E946C07F5
:102D60000E94260B82E090E09093450280934402FB
:102D70000E94A20D60934E0270934F028093500206
:102D80009093510210924302A2E0B0E0B093C604C7
:102D9000A093C504E4E0F0E0F093CA04E093C90412
:102DA00080E091E09093D6048093D5041092D804EB
:102DB0001092D7041092C8041092C7040E94AE1952
:102DC00020E031E040E050E00E940E1A6093CD0414
:102DD0007093CE048093CF049093D0041092D104CA
:102DE0001092D2041092D3041092D4041092DA04F8
:102DF0008AE08093D90459C981E00E94D20855C95C
:102E0000FC01908190539A3008F090E081818053CA
:102E10002AE0929F800D112408958091E9049091F9
:102E2000EA040E94431B8091E70487FD03C060E031
:102E30000C94410D0895CF93DF93109211031092DB
:102E4000100388EE93E0A0E0B0E08093120390932B
:102E50001303A0931403B09315032CE831E03093CF
:102E60000F0320930E0325EC30E030931B032093D7
:102E70001A0324EC30E030931D0320931C0320EC54
:102E800030E030931F0320931E0321EC30E0309399
:102E900021032093200322EC30E03093230320937E
:102EA000220326EC30E03093250320932403109274
:102EB0002703109228031092290310922A031092DC
:102EC000AE031092AD038093AF039093B003A09331
:102ED000B103B093B2038EE991E09093AC03809379
:102EE000AB031092E2041092E8041092EF041092E7
:102EF000F0041092F1041092F20481E08093EE0449
:102F00008093EB041092EC0492E09093ED04809394
:102F1000E104C8E6D1E0D093E604C093E50488E676
:102F200091E00E94AB1A9093EA048093E904009721
:102F300069F0FC019E01119221503040E1F788E7D1
:102F400090E09093E4048093E30408C01092E604B8
:102F50001092E5041092E4041092E30486E080935A
:102F6000E7048091E204882341F061E086E00E945A
:102F7000410D60E086E00E94120DE7EAF1E0E49185
:102F8000F0E0EE0FFF1FE956FE4F2591349181EEE0
:102F900094E03093F4042093F304E9E8F1E0E49141
:102FA000E093F5041092C6041092C5041092C80470
:102FB0001092C7049093DC048093DB041092DD042C
:102FC00027E72093DE0449EE58E05093E004409355
:102FD000DF041092BC041092BB049093C20480934F
:102FE000C1041092C30435E03093C4041092B204BB
:102FF0001092B1049093B8048093B70437E03093F3
:10300000B90438E03093BA041092A8041092A704CF
:103010009093AE048093AD043AE03093AF043BE06C
:103020003093B00410929E0410929D049093A404D7
:103030008093A3043CE03093A50432E13093A604CE
:10304000109294041092930490939A04809399049C
:1030500034E130939B0437E130939C0410928A044E
:10306000109289049093900480938F0438E13093F8
:1030700091043CE1309392041092800410927F04FA
:1030800090938604809385043DE1309387043FE16B
:1030900030938804109276041092750490937C0407
:1030A00080937B0430E230937D0433E230937E04DE
:1030B00010926C0410926B049093720480937104CC
:1030C00034E2309373043AE2309374041092620451
:1030D0001092610490936804809367043BE23093FC
:1030E00069043FE230936A04109258041092570426
:1030F00090935E0480935D0430E330935F0432E389
:103100003093600410924E0410924D049093540436
:103110008093530433E33093550435E330935604DE
:10312000109244041092430490934A0480934904FB
:1031300037E330934B0438E330934C0410923A0455
:10314000109239049093400480933F0430934104DB
:103150003BE3309342041092300410922F0490937A
:103160003604809335043CE3309337043EE33093D8
:103170003804109226041092250490932C04809316
:103180002B043FE330932D0432E430932E0410924D
:103190001C0410921B04909322048093210433E4B6
:1031A0003093230437E430932404109212041092D5
:1031B0001104909318048093170438E43093190491
:1031C0003DE430931A04109208041092070490937F
:1031D0000E0480930D043EE430930F0433E53093E6
:1031E00010041092FE031092FD0390930404809348
:1031F000030434E53093050438E530930604109257
:10320000F4031092F3039093FA038093F90339E5E2
:103210003093FB033CE53093FC031092EA031092D9
:10322000E9039093F0038093EF033DE53093F103BE
:103230003FE53093F2031092E0031092DF03909386
:10324000E6038093E50330E63093E70332E63093FC
:10325000E8031092D6031092D5039093DC03809379
:10326000DB0333E63093DD0336E63093DE03109262
:10327000CC031092CB039093D2038093D10337E613
:103280003093D3033BE63093D4031092C2031092E1
:10329000C1039093C8038093C7033CE63093C903EE
:1032A00030E73093CA031092B8031092B70390939B
:1032B000BE038093BD0382E78093BF032093C003C6
:1032C000DF91CF9108958F929F92AF92BF92CF924C
:1032D000DF92EF92FF92CF93DF93EC0168817981C7
:1032E0008A819B81611571058105910521F464E254
:1032F00079ED8BE597E02DE133EF41E050E00E945E
:103300000E1A49015A019B01AC01A7EAB1E40E94DF
:103310002D1A6B017C01ACEEB4EFA50194010E9463
:103320003B1ADC01CB018C0D9D1DAE1DBF1DB7FFEF
:1033300003C00197A109B04888839983AA83BB83FE
:10334000BC01CD019F77DF91CF91FF90EF90DF908F
:10335000CF90BF90AF909F908F9008958F929F9243
:10336000AF92BF92CF92DF92EF92FF9260910601EF
:103370007091070180910801909109016115710513
:103380008105910521F464E279ED8BE597E02DE16B
:1033900033EF41E050E00E940E1A49015A019B01AF
:1033A000AC01A7EAB1E40E942D1A6B017C01ACEEDE
:1033B000B4EFA50194010E943B1ADC01CB018C0DF6
:1033C0009D1DAE1DBF1DB7FF03C00197A109B048E9
:1033D0008093060190930701A0930801B09309011F
:1033E000BC01CD019F77FF90EF90DF90CF90BF9011
:1033F000AF909F908F90089560930601709307019E
:1034000080930801909309010895FB01DC0102C03B
:1034100005900D9241505040D8F70895052E97FB26
:103420001EF400940E94251A57FD07D00E94401AEE
:1034300007FC03D04EF40C94251A50954095309516
:1034400021953F4F4F4F5F4F089590958095709510
:1034500061957F4F8F4F9F4F08950E94621AA59FDD
:10346000900DB49F900DA49F800D911D112408957F
:10347000B7FF0C942D1A0E942D1A821B930B0895EE
:10348000A1E21A2EAA1BBB1BFD010DC0AA1FBB1F68
:10349000EE1FFF1FA217B307E407F50720F0A21BDA
:1034A000B30BE40BF50B661F771F881F991F1A9447
:1034B00069F760957095809590959B01AC01BD0171
:1034C000CF010895A29FB001B39FC001A39F700DCB
:1034D000811D1124911DB29F700D811D1124911D1C
:1034E0000895991B79E004C0991F961708F0961B60
:1034F000881F7A95C9F780950895AA1BBB1B51E1D7
:1035000007C0AA1FBB1FA617B70710F0A61BB70B53
:10351000881F991F5A95A9F780959095BC01CD01F8
:10352000089597FB072E16F4009407D077FD09D075
:103530000E947D1A07FC05D03EF4909581959F4F1F
:103540000895709561957F4F0895EE0FFF1F0590C8
:10355000F491E02D09940F931F93CF93DF93823062
:10356000910510F482E090E0E091F904F091FA0402
:1035700020E030E0A0E0B0E0309719F140815181C7
:103580000281138148175907C8F08417950769F419
:10359000109731F012960C93129713961C9327C034
:1035A0000093F9041093FA0422C02115310519F093
:1035B0004217530718F49A01BD01EF01DF01F8012A
:1035C000DBCF21153105F9F0281B390B24303105EB
:1035D00080F48A819B816115710521F0FB01938341
:1035E000828304C09093FA048093F904FE0132961A
:1035F00044C0FE01E20FF31F8193919322503109E1
:10360000398328833AC02091F7043091F804232BA2
:1036100041F420910C0130910D013093F804209376
:10362000F70420910A0130910B012115310541F475
:103630002DB73EB740910E0150910F01241B350B61
:10364000E091F704F091F804E217F307A0F42E1BC1
:103650003F0B2817390778F0AC014E5F5F4F2417F6
:10366000350748F04E0F5F1F5093F8044093F7045E
:103670008193919302C0E0E0F0E0CF01DF91CF9120
:103680001F910F910895CF93DF93009709F481C0A4
:10369000FC01329713821282A091F904B091FA04CE
:1036A000109781F420813181820F931F2091F704BC
:1036B0003091F8042817390751F5F093F804E09396
:1036C000F70467C0ED0120E030E0CE17DF0740F4DB
:1036D0004A815B819E0141155105F1F0EA01F5CF68
:1036E000D383C28340815181840F951FC817D907A6
:1036F00059F488819981840F951F02969183808364
:103700008A819B81938382832115310529F4F0936B
:10371000FA04E093F9043DC0E901FB83EA8349918F
:103720005991C40FD51FEC17FD0761F48081918179
:10373000840F951F0296E901998388838281938182
:103740009B838A83E0E0F0E012968D919C91139721
:10375000009719F0FD01DC01F7CF8D919C91119735
:103760009D012E5F3F4F820F931F2091F7043091F0
:10377000F8042817390769F4309729F41092FA04ED
:103780001092F90402C013821282B093F804A0933D
:10379000F704DF91CF91089581E090E0F8940C94C4
:1037A000D11B10E0CCEDD0E004C0FE010E94A51AB0
:0C37B0002196CD3DD107C9F7F894FFCF5A
:1037BC00FFFF00800000010000000000FB048000FF
:1037CC000B0A0908070605040302010017182F301D
:1037DC0047485F6077767574737271706F6E6D6C3D
:1037EC006B54533C3B24230C0D0E0F10111213146D
:1037FC001516192E3146495E616263646566676809
:10380C00696A55523D3A252221201F1E1D1C1B1A88
:10381C002D32454A5D5C5B5A59585756513E3926F4
:10382C002728292A2B2C33444B4C4D4E4F503F38D4
:10383C003736353443424140000000009A010701FD
:10384C003101E70162014001540100000000A002B7
:10385C007302D00247026B02570248025374617222
:10386C0074696E672E2E2E00525443206C6F737445
:10387C0020706F7765722C206C657473207365747F
:10388C00207468652074696D652100427574746FCD
:10389C006E20555000427574746F6E20444F574E15
:1038AC00005570646174696E672074696D65206879
:1038BC006F7572206F666673657420746F20000DCF
:1038CC000A00436865636B696E67207468652074D1
:1038DC00696D652E2E2E005570646174696E6720BB
:0E38EC007468652074696D6520746F2000009B
:107E0000112484B714BE81FFF0D085E080938100F7
:107E100082E08093C00088E18093C10086E0809377
:107E2000C20080E18093C4008EE0C9D0259A86E02C
:107E300020E33CEF91E0309385002093840096BBD3
:107E4000B09BFECF1D9AA8958150A9F7CC24DD24C4
:107E500088248394B5E0AB2EA1E19A2EF3E0BF2EE7
:107E6000A2D0813461F49FD0082FAFD0023811F036
:107E7000013811F484E001C083E08DD089C08234E0
:107E800011F484E103C0853419F485E0A6D080C0E4
:107E9000853579F488D0E82EFF2485D0082F10E0AE
:107EA000102F00270E291F29000F111F8ED06801E7
:107EB0006FC0863521F484E090D080E0DECF843638
:107EC00009F040C070D06FD0082F6DD080E0C81688
:107ED00080E7D80618F4F601B7BEE895C0E0D1E017
:107EE00062D089930C17E1F7F0E0CF16F0E7DF06D8
:107EF00018F0F601B7BEE89568D007B600FCFDCFD4
:107F0000A601A0E0B1E02C9130E011968C91119780
:107F100090E0982F8827822B932B1296FA010C0160
:107F200087BEE89511244E5F5F4FF1E0A038BF0790
:107F300051F7F601A7BEE89507B600FCFDCF97BE46
:107F4000E89526C08437B1F42ED02DD0F82E2BD052
:107F50003CD0F601EF2C8F010F5F1F4F84911BD097
:107F6000EA94F801C1F70894C11CD11CFA94CF0C13
:107F7000D11C0EC0853739F428D08EE10CD085E9AC
:107F80000AD08FE07ACF813511F488E018D01DD067
:107F900080E101D065CF982F8091C00085FFFCCF94
:107FA0009093C60008958091C00087FFFCCF809118
:107FB000C00084FD01C0A8958091C6000895E0E648
:107FC000F0E098E1908380830895EDDF803219F02E
:107FD00088E0F5DFFFCF84E1DECF1F93182FE3DFCA
:107FE0001150E9F7F2DF1F91089580E0E8DFEE27F6
:047FF000FF270994CA
:027FFE00040479
:0400000300007E007B
:00000001FF
