:100000000C94DD000C9405010C9405010C94050181
:100010000C9405010C9405010C9405010C94050148
:100020000C9405010C9405010C9405010C94050138
:100030000C9405010C9405010C9405010C94050128
:100040000C94D00D0C9405010C943C030C941603F5
:100050000C9405010C9405010C9405010C94050108
:100060000C94AE040C940501140F310F310F2F0FB7
:10007000310F020F310F310F310F050F310F310FDB
:100080001D0F2C0F290F310F310F310F260F7C114F
:100090009811BF11F0112412B7136C15C5131C145D
:1000A000A114D9141F151F15D914A1141C14C5139C
:1000B000C615DA15FA1501160A1634160A1634167C
:1000C0000A1634160A1634160A163A16C615DA1522
:1000D000FA1501160A1634160A1634160A163416BC
:1000E0000A1634160A163A16290818081F08220894
:1000F00025082C08330839083D08410845085D08E3
:1001000060086308660869086C086F08720875085B
:1001100078087B087E085D0860086308660869083F
:100120006C086F087208750878087B08DD080809F4
:100130004D099409D6091F0A570A31383A31363A1F
:100140003536004D617920313120323031390000AF
:100150000000002300260029001F1C1F1E1F1E1F59
:100160001F1E1F1E1F0102040810204080010204F0
:1001700008102001020408102000000000250028BB
:10018000002B00040404040404040402020202021A
:100190000203030303030300000000240027002AD6
:1001A0000000000008000201000003040700000036
:1001B0000000000000007517671711241FBECFEF65
:1001C000D8E0DEBFCDBF12E0A0E0B1E0E0E7F8E3A9
:1001D00002C005900D92AE33B107D9F724E0AEE32B
:1001E000B2E001C01D92AB3FB207E1F710E0CCEDE9
:1001F000D0E004C02197FE010E94FF1ACB3DD10739
:10020000C9F70E941A0E0C942B1C0C940000CF927C
:10021000DF92EF92FF920F931F93CF93DF936C01C6
:100220007A018B01C0E0D0E0CE15DF0581F0D80166
:100230006D918D01D601ED91FC910190F081E02D41
:10024000C6010995892B11F02196EECF7E01C701D9
:10025000DF91CF911F910F91FF90EF90DF90CF90A2
:100260000895FC01538D448D252F30E0842F90E0BC
:10027000821B930B541710F0CF96089501970895A1
:10028000FC01918D828D981761F0828DDF01A80F9E
:10029000B11D5D968C91928D9F5F9F73928F90E0C0
:1002A00008958FEF9FEF0895FC01918D828D98172F
:1002B00031F0828DE80FF11D858D90E008958FEF6C
:1002C0009FEF0895FC01918D228D892F90E0805C35
:1002D0009F4F821B91098F739927089584E093E0C3
:1002E0000E94620121E0892B09F420E0822F089509
:1002F000FC01848DDF01A80FB11DA35ABF4F2C91C3
:10030000848D90E001968F739927848FA689B78991
:100310002C93A089B1898C91837080648C93938D88
:10032000848D981306C00288F389E02D80818F7D2B
:1003300080830895EF92FF920F931F93CF93DF93E3
:10034000EC0181E0888F9B8D8C8D981305C0E88926
:10035000F989808185FD26C0F62E0B8D10E00F5F98
:100360001F4F0F731127E02E8C8DE8120CC00FB6B3
:1003700007FCFACFE889F989808185FFF5CFCE01A6
:100380000E947801F1CF8B8DFE01E80FF11DE35A39
:10039000FF4FF0829FB7F8940B8FEA89FB89808129
:1003A00080620AC09FB7F894EE89FF896083E8896C
:1003B000F98980818370806480839FBF81E090E0B1
:1003C000DF91CF911F910F91FF90EF900895CF9300
:1003D000DF93EC01888D8823C9F0EA89FB8980814D
:1003E00085FD05C0A889B9898C9186FD0FC00FB61F
:1003F00007FCF5CF808185FFF2CFA889B9898C9160
:1004000085FFEDCFCE010E947801E7CFDF91CF913C
:10041000089580E090E0892B29F00E946E018111FF
:100420000C940000089585ED8093BC008091BC0081
:1004300084FDFCCF10920303089540917602262F8D
:1004400030E0240F311D21323105DCF4209103030B
:100450002430C9F4FC0180E090E0861758F4309114
:1004600076022191DC01AA5ABD4FA30FB11D2C9336
:100470000196F3CF80917602680F6093760280E058
:10048000089581E0089582E00895089508950895FB
:10049000E091ED048091EC04E81730F4F0E0E354CF
:1004A000FD4F808190E008958FEF9FEF0895909128
:1004B000ED048091EC04981750F4E92FF0E0E35438
:1004C000FD4F208130E09F5F9093ED0402C02FEF3D
:1004D0003FEFC90108958091EC0490E02091ED0474
:1004E000821B91090895CF92DF92EF92FF920F93B2
:1004F0001F93CF93DF937C01CB018A012091990256
:10050000222389F0EB016B01C40ED51ECC15DD054D
:1005100069F06991D701ED91FC910190F081E02D96
:10052000C7010995F3CF642F0E941D02C801DF9116
:10053000CF911F910F91FF90EF90DF90CF90089592
:10054000CF93DF931F92CDB7DEB7698320919902D5
:100550002223D1F02091BC02203240F021E030E093
:10056000FC013383228380E090E015C080919A02E1
:10057000E82FF0E0E556FD4F998190838F5F8093DF
:100580009A028093BC0205C061E0CE0101960E94F0
:100590001D0281E090E00F90DF91CF9108950895C2
:1005A00080E090E008950E94261CAF92BF92CF9207
:1005B000DF92EF92FF920F931F93CF93DF93CDB70C
:1005C000DEB728970FB6F894DEBF0FBECDBF0E94EE
:1005D000081A20E030E041E050E00E94681A6B0108
:1005E0007C01CB010E94C30A162FA72EB82E092F1B
:1005F000D701C601AA27BB279058AF4FBF4F0E9413
:10060000C30A212F3A2D4B2D502F28960FB6F89460
:10061000DEBF0FBECDBFDF91CF911F910F91FF9035
:10062000EF90DF90CF90BF90AF9008951F920F9200
:100630000FB60F9211242F933F934F935F936F93B5
:100640007F938F939F93AF93BF93EF93FF9384E038
:1006500093E00E947801FF91EF91BF91AF919F913C
:100660008F917F916F915F914F913F912F910F905B
:100670000FBE0F901F9018951F920F920FB60F92FA
:1006800011242F938F939F93EF93FF93E091140383
:10069000F09115038081E0911A03F0911B0382FD14
:1006A00012C0908180911D038F5F8F7320911E0374
:1006B000821751F0E0911D03F0E0EC5FFC4F958F45
:1006C00080931D0301C08081FF91EF919F918F91D5
:1006D0002F910F900FBE0F901F9018957F928F92C1
:1006E0009F92AF92BF92CF92DF92EF92FF920F93C1
:1006F0001F93CF93DF93FC01828193816817790761
:1007000008F053C04A01AA24BB24782CC32ED42E4F
:10071000E52EFF24BC2DA22F8781882361F0889EBF
:1007200040011124792C8C9D60011124BD2D829FE4
:1007300070011124AF2D9585D285E084F1849D133D
:1007400008C0CB01880F991F680F791F6E0D7F1DA0
:100750001CC0660F771F660F771F6E0D7F1D052F5C
:100760001127222733277B01E90EF11C811102C0DA
:10077000202F09C090E0809F6001819FD00C909F46
:10078000D00C11242D2DE701288382859B01280F91
:10079000311DE90178828385EB01C80FD11DB88333
:1007A0008485FB01E80FF11DA083DF91CF911F919C
:1007B0000F91FF90EF90DF90CF90BF90AF909F9000
:1007C0008F907F900895CF92DF92EF92FF920F93D8
:1007D0001F93CF93DF93CDB7DEB729970FB6F89469
:1007E000DEBF0FBECDBF8C01DC0118968D919C91B0
:1007F0001997892B09F4A3C00E949F0DF801C684A4
:10080000D784E088F188DC01CB018C199D09AE0901
:10081000BF098C329140A105B10570F3F894D8015D
:1008200014968D919C9115979A8389831896ED91D2
:10083000FC9119977F01BFEFEB1AFB0A8081898732
:10084000F80190810288F389E02DD80154968C91AB
:10085000992309F430C09081982B988790818095D6
:1008600089238F838F818C8388E08B8358856F8168
:1008700049853B812C8189819A81D701508347FD2D
:10088000252F3A952083262F39F0441F00C0000001
:100890006083000000C0F2CF38E04D91608300001B
:1008A000019761F7D8015396FC93EE9352974987CD
:1008B0003B832C833AC09081982B988790818095B8
:1008C00089238F838F818E8388E08D8358856F8104
:1008D00049853D812E8189819A81D701508347FDC9
:1008E000252F00C000C0208300C000C000C000C091
:1008F00000C060830000262F3A9541F0441F00009D
:1009000000C000C000C000C000C0E8CF38E04D917A
:1009100000C0608300C0019709F7D8015396FC938B
:10092000EE93529749873D832E839A8389837894E7
:100930000E949F0DF80166877787808B918B29969F
:100940000FB6F894DEBF0FBECDBFDF91CF911F91E0
:100950000F91FF90EF90DF90CF9008951F920F922C
:100960000FB60F9211242F933F934F935F936F9382
:100970007F938F939F93AF93BF93EF93FF93809158
:10098000B900887F803609F49CC068F5883209F484
:100990005BC090F4803109F454C038F4882309F422
:1009A000F6C0883009F44DC0F6C0883109F44CC057
:1009B000803209F45DC0EFC0803409F468C048F4A7
:1009C000803309F455C0883309F0E5C080930103F2
:1009D000D8C0803509F44FC0883509F45DC088342B
:1009E00009F0D9C0D6C0883909F4C7C0A8F488373F
:1009F00009F467C038F4883609F463C0803709F415
:100A000060C0C9C0883809F4B8C0803909F45FC033
:100A1000803809F0C0C05BC0803B09F486C038F460
:100A2000803A09F466C0883A09F47FC0B4C0803CBB
:100A300009F4A7C0883C09F4A4C0883B09F48AC023
:100A4000AAC08091FE0210C0909100038091FF0225
:100A5000981770F5E091000381E08E0F80930003FA
:100A6000F0E0E352FD4F80818093BB0085EC86C0AF
:100A7000809301038EC0E091000381E08E0F80938C
:100A800000038091BB00F0E0E352FD4F8083909122
:100A900000038091FF026EC0E091000381E08E0FA1
:100AA000809300038091BB00F0E0E352FD4F808310
:100AB0008091020381116DC081E08093FD0284EA80
:100AC00061C083E08093030310929802CFCF80919E
:100AD0009802803208F051C0E091980281E08E0FB8
:100AE000809398028091BB00F0E0E858FD4F80832E
:100AF000BDCF85EC8093BC001092030380919802D7
:100B0000803230F4E0919802F0E0E858FD4F108216
:100B10006091980270E0E0913E02F0913F0288E718
:100B200092E009951092980236C084E08093030306
:100B30001092770210927602E0914002F091410209
:100B4000099580917602811105C081E0809376023B
:100B500010925602E091770281E08E0F8093770227
:100B6000F0E0EA5AFD4F80818093BB0090917702BC
:100B700080917602981708F479CF85E88093BC00BD
:100B80000AC085EC8093BC001092030304C010924D
:100B900001030E941302FF91EF91BF91AF919F91CA
:100BA0008F917F916F915F914F913F912F910F9016
:100BB0000FBE0F901F90189521E031E0482F429F03
:100BC000C001439F900D11240C94C30A5F926F9251
:100BD0007F928F929F92AF92BF92CF92DF92EF92CD
:100BE000FF920F931F93CF93DF93EC0181E08093EB
:100BF000990288E68093BB0210929A021092BC027E
:100C000060E081EA93E00E94A0020E94460C67E047
:100C100088E60E94040C1092ED048093EC0481EAB3
:100C200093E00E9457028F77982F92959F702AEF3A
:100C3000F22E782E9F9D700C112481EA93E00E9481
:100C400057029C01332744E0359527954A95E1F7F3
:100C5000182FF29E100D112481EA93E00E94570292
:100C60009C01332754E0359527955A95E1F7082FD5
:100C7000F29E000D112481EA93E00E94570281EA5E
:100C800093E00E945702BC017727E4E075956795D1
:100C9000EA95E1F7582EF69E500C112481EA93E074
:100CA0000E9457029C013327F4E035952795FA9569
:100CB000E1F7682EF29E600C112481EA93E00E9415
:100CC00057029C013327A4E035952795AA95E1F7B3
:100CD000F29E800D1124C82ED12C760190E3E91AE2
:100CE00098EFF90A888369825A820B831C837D827C
:100CF00020914202222309F4B4C030E0A0E1BEE01A
:100D00000E94BC1A4B015C01452D50E0E9E5F1E081
:100D100081E0861530F49491490F511D8F5F319613
:100D2000F8CF82E0861538F4C60183709927892BA5
:100D300011F44F5F5F4F9DECE91A97E0F90AF694C2
:100D4000E794F694E7942DE631E0C29EC001C39E7D
:100D5000900DD29E900D11249701280F391F21501C
:100D60003109240F351FA8E1B0E00E94BC1A9B0195
:100D7000AC01200F311D411D511DACE3B0E00E94BC
:100D8000871A9B01AC01210F311D411D511D0E948D
:100D9000871ADC01CB01870D911DA11DB11D880EA5
:100DA000991EAA1EBB1E9CE3C92ED12CE12CF12C4E
:100DB000C501B401A70196010E949A1A162FCA0113
:100DC000B901A70196010E949A1A062FC501B40124
:100DD00020E13EE040E050E00E949A1ACA01B901C9
:100DE00028E130E040E050E00E949A1AF62EC5015A
:100DF000B40120E831E541E050E00E949A1A40E059
:100E0000542F537081E009F080E061E0640F90E0BE
:100E1000FC01E359FE4F2E173F0710F481E012C08A
:100E2000281B390B2D563140462FEACF823009F46A
:100E3000EF5FF0E091E0980F2E173F0758F02E1B60
:100E40003F0B892FE82FF0E0E85AFE4FE491511153
:100E5000F0CFECCF488389832F5F2A83FB820C83FA
:100E60001D83CE01DF91CF911F910F91FF90EF90E5
:100E7000DF90CF90BF90AF909F908F907F906F90BA
:100E80005F900895CF92DF92EF92FF920F931F939E
:100E9000CF938C016A017B01FC01C085F80121859B
:100EA000868197812C1740F06C2F70E0A701960186
:100EB0000E946E03CF5FF2CFCF911F910F91FF90F1
:100EC000EF90DF90CF900C94E303FC01808191813F
:100ED000892B59F01182108212821482138240E011
:100EE00050E0BA01CF010C94420708958DE994E0D7
:100EF0000E94650787EA94E00E94650781EB94E011
:100F00000E94650789E894E00E94650783E994E000
:100F10000E9465078BE694E00E94650785E794E0F0
:100F20000E9465078FE794E00E94650787E594E0DB
:100F30000E94650781E694E00E9465078FE294E0D5
:100F40000E94650789E394E00E94650783E494E0CA
:100F50000E9465078DE494E00E94650781E194E0BA
:100F60000E9465078BE194E00E94650785E294E0AA
:100F70000E9465078DEF93E00E94650787E094E08B
:100F80000E9465078FED93E00E94650789EE93E06C
:100F90000E94650783EF93E00E94650785ED93E06B
:100FA0000E9465078BEC93E00E94650781EC93E05B
:100FB0000E9465078DEA93E00E94650787EB93E046
:100FC0000C946507CF93DF93C82FD62F87E292E06A
:100FD0000E94B40B8C2F0E94C60B6AE384E093E05E
:100FE0000E949A018D2F0E94C60B8FE092E00E9412
:100FF000B40BC0930001D093010180E00E94AA08C5
:101000000E9476078DE994E00E949E0B87EA94E0A7
:101010000E949E0B8D2F65E00E94CB1A90E0FC0190
:101020003197EB30F105F0F5EC58FF4F0C94FF1AB7
:1010300085E794E00E949E0B81E694E00FC083E96F
:1010400094E00CC081EB94E0F5CF81EB94E00E943A
:101050009E0B8BE694E0EECF89E894E00E949E0B15
:101060008FE294E01DC0CF5F81EB94E00E949E0B65
:101070000DC0CF5F81EB94E00BC0CF5F83E994E0BC
:101080000BC0CF5F85E794E003C0CF5F8BE694E0B1
:101090000E949E0B81E694E00E949E0B89E394E0FF
:1010A0000E949E0B8C2F90E0FC013197E731F105F7
:1010B00028F5E158FF4F0C94FF1A83E494E020C018
:1010C00085E294E01DC083EF93E01AC089EE93E0BF
:1010D00017C08BE194E014C08FED93E011C081EC58
:1010E00093E00EC087EB93E00BC08BEC93E008C05D
:1010F00085ED93E005C08DEF93E002C087E094E0BA
:101100000E949E0B83E090E09093AE038093AD032A
:1011100084E08093AF031092B1031092B203DF9189
:10112000CF910895CF93DF9300D000D000D0CDB7FA
:10113000DEB7CE0101960E94E6056D818C810E948A
:10114000E20726960FB6F894DEBF0FBECDBFDF9143
:10115000CF910895CF932091440230914502232BE3
:1011600071F0C82F1092450210924402109243026F
:101170000E94320BCC2319F0CF910C949208CF919E
:101180000895CF93DF93CDB7DEB728970FB6F894C5
:10119000DEBF0FBECDBF2091440230914502223008
:1011A000310509F084C1FC013297E730F10508F000
:1011B0007EC1EA56FF4F0C94FF1A83E090E09093B3
:1011C000BC048093BB0488E090E09093C0048093BB
:1011D000BF048FEF90E09093CC048093CB041092E7
:1011E000CE041092CD041092BE041092BD04109251
:1011F000C3041092C4041092C5041092C604109245
:10120000C7041092C8041092C9041092CA0488C07E
:1012100084E090E09093BC048093BB0484E690E06B
:101220009093C0048093BF048091D4048F5F909109
:10123000D304891B90E09093CC048093CB0410924C
:10124000CE041092CD041092BE041092BD040E94F0
:10125000D50229833A834B835C836D837E838F839E
:10126000988789819A81AB81BC818093C3049093D4
:10127000C404A093C504B093C6048D819E81AF8140
:10128000B8858093C7049093C804A093C904B09311
:10129000CA041092D00481E007C185E090E09093E9
:1012A000BC048093BB0488E090E09093C0048093DA
:1012B000BF048091D4048F5F9091D304891B90E088
:1012C000880F991F9093CC048093CB041092CE0486
:1012D0001092CD041092BE041092BD040E94D5025B
:1012E00029833A834B835C836D837E838F839887C6
:1012F00089819A81AB81BC818093C3049093C4049B
:10130000A093C504B093C6048D819E81AF81B8853A
:101310008093C7049093C804A093C904B093CA04EF
:101320001092D00485E0C0C086E090E09093BC04A9
:101330008093BB048EE190E09093C0048093BF043F
:101340008091D4048F5F9091D304891B90E0909397
:10135000CC048093CB041092CE041092CD04109252
:10136000BE041092BD040E94D50229833A834B83A8
:101370005C836D837E838F83988789819A81AB811B
:10138000BC818093C3049093C404A093C504B0931C
:10139000C6048D819E81AF81B8858093C7049093E8
:1013A000C804A093C904B093CA047BC08091D4043C
:1013B0008F5F9091D304891B883708F483C087E03E
:1013C00090E09093BC048093BB0484EF91E09093F1
:1013D000C0048093BF048AE090E09093CC04809393
:1013E000CB041092CE041092CD041092BE04109241
:1013F000BD040E94D50229833A834B835C836D83AD
:101400007E838F83988789819A81AB81BC81809309
:10141000C3049093C404A093C504B093C6048D8103
:101420009E81AF81B8858093C7049093C804A09330
:10143000C904B093CA041092D00483E035C08091EF
:10144000D4048F5F9091D304891B8837D8F188E04A
:1014500090E09093BC048093BB0485E190E090936E
:10146000C0048093BF0480EF90E09093CC048093FD
:10147000CB041092CE041092CD041092BE041092B0
:10148000BD041092C3041092C4041092C5041092BB
:10149000C6041092C7041092C8041092C904109296
:1014A000CA041092D00484E08093CF040BC081E082
:1014B00028960FB6F894DEBF0FBECDBFDF91CF9157
:1014C0000C94AA0828960FB6F894DEBF0FBECDBFC5
:1014D000DF91CF910895CF92DF92EF92FF920F9319
:1014E0001F93CF93DF93EC0128813981223031059E
:1014F00008F440C09B8180914602890F8B839A81BA
:101500008917C0F11B822230310551F0233031059B
:1015100089F5E88409850F5F0E19FE2C10E00BC0D9
:101520009D818C81890F0E94DC05AB01BC01CE013D
:101530000E9442071CC08F2D8E199985CE80DF80B6
:101540009F1590F0982F80E0B8010E94EB1A8C81D3
:10155000860F0E94DC059B01AC016F2D70E0C60177
:101560000E946E03F394E7CFC6010E94E3038C81CF
:101570008F5F8C83DF91CF911F910F91FF90EF9040
:10158000DF90CF9008950F931F939C01AAEFB5E0D1
:101590000E94BC1ADC01CB019058AF4FBF4FCD0168
:1015A000BB2797FDB095AB2F8E3F01E0900760F40D
:1015B0008F3F910518F4682F80E029C06EEF962FB9
:1015C000981B80E06FEF24C08C3F13E0910760F41C
:1015D0008D3F42E0940718F48E5F6FEF03C06CEF0D
:1015E000681B8FEF90E014C08A3F05E0900769F018
:1015F0008B3F14E0910728F494E0980F8FEF60E0A0
:1016000007C06AEF681B862F01C080E060E09FEF93
:10161000292F30E0E62FF0E0482F50E0CF01A0E086
:10162000B0E0BA2FA92F982F88278827AA27BB2791
:1016300060E070E0482B592B6A2B7B2BC901A0E09E
:10164000B0E0DC019927882788279927BB278A01E2
:101650009B01082B192B2A2B3B2BC901B8011F9189
:101660000F910895CF938091BB049091BC04892B76
:1016700009F442C01092BC041092BB041092C00442
:101680001092BF041092CC041092CB041092CE049E
:101690001092CD041092BE041092BD041092C204A8
:1016A0001092C1041092C3041092C4041092C50495
:1016B0001092C6041092C7041092C8041092C90474
:1016C0001092CA041092D0041092CF04C091D30497
:1016D0002091D4048091D1049091D2042C1748F029
:1016E0006C2F70E020E030E0A9010E946E03CF5F14
:1016F000EFCFCF910C94E303CF910895CF93DF9375
:101700009091CF049923B9F08091D0048F5F80939A
:10171000D004891780F0C091BB04D091BC040E9412
:10172000320BE091D504F091D604309721F0CE0130
:10173000DF91CF910994DF91CF910895CF93DF93FB
:10174000EC0182E090E09983888388E28A831C829E
:101750000E94081A20E031E040E050E00E94681A40
:101760006D83DF91CF910895009769F0FC0101909E
:101770000020E9F73197AF01481B590BBC0184E009
:1017800093E00C94070180E090E00895CF92DF92FF
:10179000EF92FF920F931F93CF93DF93CDB7DEB7F6
:1017A000A1970FB6F894DEBF0FBECDBF282F30E053
:1017B00040E050E019A28E010F5D1F4F8AE0C82E55
:1017C000D12CE12CF12CCA01B901A70196010E948C
:1017D0009A1A605DF80162938F0121153105410568
:1017E000510589F7CF010E94B40BA1960FB6F8946A
:1017F000DEBF0FBECDBFDF91CF911F910F91FF9044
:10180000EF90DF90CF900895909103039111FCCF5A
:1018100091E090930303909302032FEF2093010331
:1018200010920003260F2093FF029093FE029091E6
:10183000FE02880F892B8093FE028091FD02813089
:1018400061F41092FD028091FE028093BB008091B2
:10185000BC0083FDF8CF85EC01C085EE8093BC0011
:10186000809103038130E1F380910003861710F427
:1018700060910003ADEDB2E0EDEBF2E080E08617A1
:1018800021F09D9191938F5FFACF08953091BC0222
:10189000313208F04BC0809103038111FCCF90914D
:1018A000BB0222E02093030321E0209302032FEFE9
:1018B00020930103109200033093FF02EBE9F2E062
:1018C000ADEDB2E020E0321721F041914D932F5F52
:1018D000FACF1092FE022091FE02990F922B909364
:1018E000FE029091FD02913061F41092FD02909100
:1018F000FE029093BB009091BC0093FDF8CF95EC55
:1019000001C095EE9093BC00909103039230E1F3F7
:10191000909101039F3F79F080910103803241F063
:1019200080910103803331F084E005C081E003C081
:1019300082E001C083E010929A021092BC021092E1
:10194000990208952091BD043091BE048091CD0488
:101950009091CE04232B89F401969093CE0480932A
:10196000CD042091CB043091CC0482179307B8F0BA
:101970001092CE041092CD0410C001979093CE0423
:101980008093CD04892B59F48091CB049091CC04A1
:1019900001979093CE048093CD040C947E0B089510
:1019A000E1E1F4E081E090E091838083148215828C
:1019B00044E958E168EF70E0CF010C94420781E000
:1019C0008093990288E68093BB0210929A0210924B
:1019D000BC026FE081EA93E00E94A0020E94460CE4
:1019E00061E088E60E94040C1092ED048093EC0400
:1019F00081EA93E00E9457020895CF93DF930E94FB
:101A0000B40BEC018FE092E00E94B40B8C0F9D1F91
:101A1000DF91CF910895833081F028F4813099F0DF
:101A20008230A1F008958730A9F08830B9F0843071
:101A3000D1F4809180008F7D03C0809180008F77EA
:101A400080938000089584B58F7702C084B58F7D20
:101A500084BD08958091B0008F7703C08091B0005D
:101A60008F7D8093B00008951F93CF93DF93282F2D
:101A700030E0F901EF55FE4F8491F901EB59FE4F2B
:101A8000D491F901ED57FE4FC491CC23C1F0162F2C
:101A900081110E940B0DEC2FF0E0EE0FFF1FE758B5
:101AA000FE4FA591B4919FB7F894111104C08C9189
:101AB000D095D82302C0EC91DE2BDC939FBFDF9141
:101AC000CF911F910895CF93DF9390E0FC01EB59E4
:101AD000FE4F2491FC01ED57FE4F8491882361F164
:101AE00090E0880F991FFC01E956FE4FC591D491F3
:101AF000FC01E758FE4FA591B491611109C09FB751
:101B0000F8948881209582238883EC912E230BC042
:101B1000623061F49FB7F8948881322F3095832327
:101B20008883EC912E2B2C939FBF06C08FB7F8941F
:101B3000E8812E2B28838FBFDF91CF9108953FB787
:101B4000F8948091F3049091F404A091F504B0917D
:101B5000F60426B5A89B05C02F3F19F00196A11DDC
:101B6000B11D3FBFBA2FA92F982F8827820F911D33
:101B7000A11DB11DBC01CD0142E0660F771F881F7A
:101B8000991F4A95D1F708952FB7F8946091EF0403
:101B90007091F0048091F1049091F2042FBF0895A8
:101BA0001F920F920FB60F9211242F933F938F9392
:101BB0009F93AF93BF938091EF049091F004A09115
:101BC000F104B091F2043091EE0423E0230F2D379D
:101BD00020F40196A11DB11D05C026E8230F029631
:101BE000A11DB11D2093EE048093EF049093F004A7
:101BF000A093F104B093F2048091F3049091F40463
:101C0000A091F504B091F6040196A11DB11D809339
:101C1000F3049093F404A093F504B093F604BF91F9
:101C2000AF919F918F913F912F910F900FBE0F9089
:101C30001F901895CF93DF93CDB7DEB766970FB699
:101C4000F894DEBF0FBECDBF789484B5826084BDAA
:101C500084B5816084BD85B5826085BD85B58160B0
:101C600085BD80916E00816080936E00109281002E
:101C700080918100826080938100809181008160E9
:101C800080938100809180008160809380008091AA
:101C9000B10084608093B1008091B0008160809336
:101CA000B00080917A00846080937A0080917A00FD
:101CB000826080937A0080917A00816080937A00BC
:101CC00080917A00806880937A001092C100E09140
:101CD0001403F091150382E08083E0911003F091EA
:101CE00011031082E0911203F091130387E68083C1
:101CF00010921C03E0911803F091190386E0808391
:101D0000E0911603F0911703808180618083E09158
:101D10001603F0911703808188608083E091160399
:101D2000F0911703808180688083E0911603F09121
:101D3000170380818F7D80838CEA91E00E94FD0CE7
:101D400062E088E00E94630D1092ED041092EC04B2
:101D500010929A021092BC021092030381E08093C9
:101D600002031092FD0261E082E10E94340D61E005
:101D700083E10E94340D8091B9008E7F8093B90079
:101D80008091B9008D7F8093B90088E48093B8007A
:101D900085E48093BC0085E492E0909341028093B7
:101DA000400286E492E090933F0280933E020E94BC
:101DB000DF0C90E0880F892F881F990B892B09F47D
:101DC000F0C088EB91E00E94FD0C4BE050E063E432
:101DD00071E0CE0101960E945F1ACE010A960E9420
:101DE0005A17E82EE9814E2FEE0F550B660B770B35
:101DF000FA01E154F109E331F10598F5EC5CFF4F8C
:101E00000C94FF1A42E0F42E2CC08A81813631F006
:101E10008B818E3631F037E0F32E23C0FF24F3940C
:101E200020C026E0F22E1DC08B81823719F098E089
:101E3000F92E17C084E0F82E14C08B81823719F078
:101E4000B5E0FB2E0EC0A3E0FA2E0BC0F9E0FF2E8A
:101E500008C0EAE0FE2E05C07BE0F72E02C06CE071
:101E6000F62ECE0105960E945A17A82E48E050E0A3
:101E70006AE371E0CE0101960E945F1ACE010196DD
:101E80000E945A17982ECE0104960E945A17882E47
:101E9000CE0107960E945A17782EBB24B394B092B5
:101EA000990248E6C42EC092BB0210929A02109288
:101EB000BC0260E081EA93E00E94A0025AE0D52EC5
:101EC000872D6D2D0E94CB1A682F660F860F880F05
:101ED000682F670D81EA93E00E94A002882D6D2D86
:101EE0000E94CB1A682F660F860F880F682F680D27
:101EF00081EA93E00E94A002892D6D2D0E94CB1AE9
:101F0000682F660F860F880F682F690D81EA93E0AE
:101F10000E94A00260E081EA93E00E94A0028A2D64
:101F20006D2D0E94CB1A682F660F860F880F682FC1
:101F30006A0D81EA93E00E94A0028F2D6D2D0E9410
:101F4000CB1A682F660F680F660F6F0D81EA93E05A
:101F50000E94A0028E2D6D2D0E94CB1A682F660F55
:101F6000680F660F6E0D81EA93E00E94A0020E9446
:101F7000460C0E94DF0CF82EB0929902C092BB0270
:101F800010929A021092BC026FE081EA93E00E94E4
:101F9000A0026F2D6F7781EA93E00E94A0020E9459
:101FA000460C8091DD0487FD08C061E00E94630D4E
:101FB00060E08091DD040E94340D81E08093D804BC
:101FC0006091DE04673521F12091DF043091E00457
:101FD000615031F070E08FEF96E50E94D71A02C091
:101FE00060E070E0F9014091DB045091DC04CF0126
:101FF000821B930B8417950740F44081469FC001D4
:10200000479F900D11249193EECF87E58093DE04D6
:10201000E9EAF1E08491EDE6F1E0E490EBE8F1E04B
:10202000F490FF2079F081110E940B0DEF2DF0E06C
:10203000EE0FFF1FE15BFE4FA591B4918C91E8225A
:1020400009F0B3C60E94C40D6B017C0180914D0262
:10205000811112C085EE91E00E94FD0C81E0809319
:102060004D0210924C02C0924802D0924902E09276
:102070004A02F0924B023BC0809148029091490283
:10208000A0914A02B0914B02A7019601281B390B7F
:102090004A0B5B0BCA01B901603D37E0730781054C
:1020A000910528F128EE33E040E050E00E949A1AB2
:1020B0002F5F80914C022817D1F020934C02809121
:1020C00042028F5F8C3018F48093420202C010925B
:1020D000420281EF91E00E94B40B809142020E9483
:1020E000C60B8FE092E00E94B40B0E949208809190
:1020F000440290914502892B09F0C4C00E94C40D8E
:102100006B017C018091020190910301A091040177
:10211000B0910501A7019601281B390B4A0B5B0BF7
:10212000DA01C90180319742A105B10508F4AAC0BE
:1021300082E192E00E94FD0CC0920201D092030164
:10214000E0920401F0920501CE0101960E94E6059D
:10215000FC80ED808F2D0E94C60B6AE384E093E043
:102160000E949A018E2D0E94C60B8FE092E00E9481
:10217000B40B20910001F2120DC035E08E2D632FBB
:102180000E94CB1A482F809101010E94CB1A481758
:1021900009F478C045E1F41254C0253109F451C066
:1021A0002F3F09F44EC00E9476070E94320B82E056
:1021B00090E090934502809344020E94C40D609386
:1021C0004E0270934F0280935002909351021092EE
:1021D0004302A2E0B0E0B093BC04A093BB04E4E0EF
:1021E000F0E0F093C004E093BF0420E031E03093CE
:1021F000CC042093CB041092CE041092CD04109204
:10220000BE041092BD040E94081A20E031E040E0B4
:1022100050E00E94681A6093C3047093C4048093D2
:10222000C5049093C6041092C7041092C80410927B
:10223000C9041092CA041092D0048AE08093CF049B
:1022400021C08A818530D1F48B818330B9F40E941A
:1022500076070E94320B43E050E0509345024093D2
:1022600044020E94C40D60934E0270934F0280930B
:102270005002909351021092430204C06E2D8F2D94
:102280000E94E207809144029091450281309105BD
:1022900008F407C58330910520F0039709F455C46D
:1022A00000C5E091BB04F091BC04E230F10508F4F4
:1022B000F8C42091C1043091C204809146029091EB
:1022C0004702820F931F9093C2048093C104209110
:1022D000BF043091C0048217930708F4E2C410923F
:1022E000C2041092C1043297E730F10508F0D9C456
:1022F000E95BFF4F0C94FF1A9091C3048091CD04C9
:10230000890F0E94DC056B017C01B090D304209101
:10231000D4048091D1049091D2042B1508F410C4F8
:102320006B2D70E0A70196010E946E03B394EFCF6E
:10233000A090D304E090D404E394EA18BA2CF12CD2
:102340008B2D8A199091D404C090D104D090D204DE
:102350009B1598F0982F80E0B7010E94EB1A8091AE
:10236000CD04860F0E94DC059B01AC016B2D70E053
:10237000C6010E946E03B394E3CFC601E1C3D090BF
:10238000D3048091D404E091D104F091D2048D154E
:1023900028F1ED2CF12C8091CD049091CE048E0D7E
:1023A0009F1D63E070E00E94D71A892B49F42091A9
:1023B000C3043091C4044091C5045091C60408C0C0
:1023C0002091C7043091C8044091C9045091CA04B7
:1023D000B701CF010E946E03D394D3CFCF01B0C316
:1023E0008091CD049091CE046091CB047091CC0487
:1023F000769567957727A091D304E091D104F09169
:10240000D2048617970760F42091C3043091C40466
:102410004091C5045091C604BC016A0F711D12C0E1
:102420008090C7049090C804A090C904B090CA04DA
:102430007B01EA0EF11C0E94D71AB701681B790BC9
:10244000A5019401CF0176C32090CB043090CC0439
:10245000369427948091CD049091CE0482159305F3
:1024600030F48B8B2090D404281A2C8A09C0B10137
:102470000E94D71A9FEF920D981B9B8B820D8C8B1D
:102480005091D3045C878091D4048090D1049090C3
:10249000D2049C85891708F468C1292E312CAB8998
:1024A0009A1309C02091C3043091C4044091C5041B
:1024B0005091C60452C1BC85EC89BE1309C020915D
:1024C000C7043091C8044091C9045091CA0445C161
:1024D000D40112968D919C9113972816390608F015
:1024E0000FC11D968C911D971A96AC901A9718964D
:1024F000ED90FC90199717964C9017971B96BC91EE
:10250000BD87C82ED12CF401F485FA8B8A116EC0D8
:102510003C8523E0329FE00CF11C1124442009F497
:102520004BC0512C612C712CF701EB0FF11D608118
:1025300070E0762F6627072E000C880B990BA301FD
:1025400092010E949A1AB42FA32F922F88278D8769
:102550009E87AF87B88BF701EC0DFD1D608170E0A1
:10256000762F6627072E000C880B990BA30192018A
:102570000E949A1AD90199278827AD84BE84CF84F6
:10258000D888A82AB92ACA2ADB2AF7019A89E90F2A
:10259000F11D608170E0762F6627072E000C880BF6
:1025A000990BA30192010E949A1A76016501C22A31
:1025B000D32AE42AF52AA7C0F701AD85EA0FF11D59
:1025C0008081F701EC0DFD1DA0804A2D50E060E0F8
:1025D00070E0BA0155274427582BF701BA89EB0F51
:1025E000F11D80816A017B01C82A8DC0C101880F5D
:1025F000991F880F991FE80EF91EEA2DF0E0FE8B57
:10260000ED8B442009F45CC0512C612C712CF70136
:10261000EC0DFD1D608170E0762F6627072E000C03
:10262000880B990BA30192010E949A1AD22ECC24F6
:10263000BB24AA24ED89FE89EE0DFF1D608170E0A8
:10264000762F6627072E000C880B990BA3019201A9
:102650000E949A1AD90199278827A82AB92ACA2A32
:10266000DB2AF7012A89E20FF11D608170E0762FE5
:102670006627072E000C880B990BA30192010E947C
:102680009A1AA22AB32AC42AD52AF7013D85E30F54
:10269000F11D608170E0762F6627072E000C880BF5
:1026A000990BA30192010E949A1AB42FA32F922F83
:1026B000882776016501C82AD92AEA2AFB2A23C07D
:1026C000F701EC0DFD1D8081ED89FE89EE0DFF1DEA
:1026D000A0804A2D50E060E070E0BA015527442701
:1026E000782BF7018A89E80FF11D8081482BF701CB
:1026F0009D85E90FF11D80816A017B01D82A03C005
:10270000C12CD12C76012E2D30E035952795C901AD
:10271000330FAA0BBB0BBC01552744278D2D90E02E
:1027200095958795092E000CAA0BBB0BBA2FA92FE4
:10273000982F8827842B952BA62BB72BAC2CB12C4C
:10274000950135952795A901330F660B770B9A01F3
:10275000AB01282B392B4A2B5B2BB101C4010E9402
:102760006E03AC85AF5FAC878ECEC401E9C1E0904B
:10277000CD04F090CE04BAE0EB16F10408F077C176
:10278000F701E25BFF4F0C94FF1A88E290E00E9491
:10279000051B8C01FC01108281E0818382E0828331
:1027A00083E0838384E0848385E0858386E0868379
:1027B00087E0878388E0808789E081878AE0828755
:1027C0008BE083878CE0848783E2858784E2868739
:1027D0008BE387878CE3808B83E5818B84E5828B19
:1027E0008BE6838B8CE6848B8DE6858B8EE6868BE1
:1027F0008FE6878B80E7808F81E7818F82E7828FEA
:1028000083E7838F84E7848F85E7858F86E7868FCC
:1028100087E7878F80E680A38FE581A388E482A382
:1028200087E483A380E384A38FE285A388E186A362
:1028300087E187A3F8E21AC180E290E00E94051BBD
:102840008C018DE0D8018C938EE011968C931197BA
:102850008FE012968C93129780E113968C931397C6
:1028600081E114968C93149782E115968C931597B9
:1028700083E116968C93169784E117968C9317979D
:1028800085E118968C93189786E119968C93199781
:1028900089E11A968C931A978EE21B968C931B975C
:1028A00081E31C968C931C9786E41D968C931D9750
:1028B00089E41E968C931E978EE51F968C931F9726
:1028C00081E650968C93509782E651968C9351975F
:1028D00083E652968C93529784E653968C93539743
:1028E00085E654968C93549786E655968C93559727
:1028F00087E656968C93569788E657968C9357970B
:1029000089E658968C9358978AE659968C935997EE
:1029100085E55A968C935A9782E55B968C935B97E4
:102920008DE35C968C935C978AE35D968C935D97C0
:1029300085E25E968C935E9782E25F968C93B0E21E
:102940007CC088E190E00E94051B8C018AE1F801BF
:1029500080838BE181838CE182838DE183838EE1AF
:1029600084838FE1858380E2868381E2878386E2A8
:10297000808789E381878EE3828781E5838786E587
:10298000848787E5858788E5868789E587878AE55F
:10299000808B8BE5818B8CE5828B8DE5838B8AE444
:1029A000848B85E4858B82E3868B8DE2878BF8E1CF
:1029B0005DC080E190E00E94051B8C0187E2D80198
:1029C0008C9388E211968C93119789E212968C93DE
:1029D00012978AE213968C9313978BE214968C933A
:1029E00014978CE215968C93159783E316968C9327
:1029F000169784E417968C9317978BE418968C930C
:102A000018978CE419968C9319978DE41A968C93E9
:102A10001A978EE41B968C931B978FE41C968C93CD
:102A20001C9780E51D968C931D978FE31E968C93C3
:102A30001E9788E31F968C93B0E1B98B18C088E08D
:102A400090E00E94051B8C0184E3F801808385E3FC
:102A5000818386E3828387E3838380E4848381E4C4
:102A6000858382E4868383E48783F8E0F98B25E01D
:102A7000E216F104A0F4E0FC09C08090C304909039
:102A8000C404A090C504B090C6040CC08090C704D4
:102A90009090C804A090C904B090CA0403C0812CCF
:102AA000912C5401D02E7801D7016D917D0170E0F9
:102AB000A50194018091D1049091D2040E946E03EB
:102AC0008E2D8D19B9898B1778F301151105A1F198
:102AD000C8010E949D1B30C08091CD049091CE040E
:102AE0008837910558F068E770E00E94D71A97E799
:102AF000F92EF81A20E030E0A90111C0F82E9C014F
:102B0000AFEFBFEF0E94BC1A27E730E040E050E093
:102B10000E94681AC9010E94C30A9B01AC01EF2DF3
:102B2000F0E0E05FFE4F8081682F70E08091D1047B
:102B30009091D2040E946E038091D1049091D204AE
:102B40000E94E3030E94A20CACC00E94C40D6B0162
:102B50007C0180914E0290914F02A0915002B09161
:102B60005102A7019601281B390B4A0B5B0BDA01B6
:102B7000C901B09043024B2D50E04C31510508F093
:102B80007FC0FA01E85AFF4F0C94FF1A803D97402E
:102B9000A105B10508F485C043E050E050938004DE
:102BA00040937F0484E08093810410928304109208
:102BB000840466C0803D9740A105B10508F471C04A
:102BC00083E090E0909358048093570484E08093CE
:102BD000590410925B0410925C04A3E0B0E0B0933F
:102BE0004E04A0934D0480934F0410925104109210
:102BF000520446C0803D9740A105B10508F451C07C
:102C000030C0803D9740A105B10508F44AC00E943C
:102C1000760736C0883C9105A105B10508F441C08E
:102C200023E030E03093800420937F0484E080939D
:102C300081041092830410928404309358042093EA
:102C400057048093590410925B0410925C043093F3
:102C50004E0420934D0480934F041092510410921F
:102C600052040E94D00C0CC0883C9105A105B1050E
:102C7000C0F0CDCF803A9F40A105B10590F0C7CFFD
:102C800081E08B0D80934302C0924E02D0924F029E
:102C9000E0925002F09251028C3118F081E00E94D3
:102CA000AA088DE994E00E946B0A87EA94E00E94EA
:102CB0006B0A81EB94E00E946B0A89E894E00E9421
:102CC0006B0A83E994E00E946B0A8BE694E00E9411
:102CD0006B0A85E794E00E946B0A8FE794E00E94FC
:102CE0006B0A87E594E00E946B0A81E694E00E94FB
:102CF0006B0A8FE294E00E946B0A89E394E00E94E1
:102D00006B0A83E494E00E946B0A8DE494E00E94D5
:102D10006B0A81E194E00E946B0A8BE194E00E94CF
:102D20006B0A85E294E00E946B0A8DEF93E00E94AB
:102D30006B0A87E094E00E946B0A8FED93E00E949B
:102D40006B0A89EE93E00E946B0A83EF93E00E9486
:102D50006B0A85ED93E00E946B0A8BEC93E00E9476
:102D60006B0A81EC93E00E946B0A8DEA93E00E946B
:102D70006B0A87EB93E00E946B0A0E94C40D2091BE
:102D8000520230915302AB01421B530B5093470246
:102D90004093460260935202709353028093540210
:102DA000909355020E94090233C980914D028823F5
:102DB00009F49DC90E94C40DC0904802D0904902F8
:102DC000E0904A02F0904B029B01AC012C193D09A6
:102DD0004E095F0969017A0133E3C316D104E104A6
:102DE000F10408F484C98BED91E00E94FD0C10926F
:102DF0004D0240EDC41647E0D406E104F10408F0AA
:102E000076C98091440290914502892B09F04EC009
:102E10000E9476070E94320B82E090E09093450278
:102E2000809344020E94C40D60934E0270934F023F
:102E3000809350029093510210924302A2E0B0E0BE
:102E4000B093BC04A093BB04E4E0F0E0F093C004B2
:102E5000E093BF0420E031E03093CC042093CB0416
:102E60001092CE041092CD041092BE041092BD04B4
:102E70000E94081A20E031E040E050E00E94681A09
:102E80006093C3047093C4048093C5049093C604F4
:102E90001092C7041092C8041092C9041092CA0478
:102EA0001092D0048AE08093CF0421C981E00E946F
:102EB000AA081DC9FC01908190539A3008F090E057
:102EC000818180532AE0929F800D11240895809182
:102ED000DF049091E0040E949D1B8091DD0487FD3A
:102EE00003C060E00C94630D0895CF93DF931092BC
:102EF00007031092060388EE93E0A0E0B0E0809311
:102F0000080390930903A0930A03B0930B032CE8E2
:102F100031E0309305032093040325EC30E0309337
:102F200011032093100324EC30E03093130320931B
:102F3000120320EC30E0309315032093140321ECAE
:102F400030E0309317032093160322EC30E03093E7
:102F500019032093180326EC30E030931B032093D1
:102F60001A0310921D0310921E0310921F03109259
:102F700020031092A4031092A3038093A5039093BF
:102F8000A603A093A703B093A8038EE991E09093C2
:102F9000A2038093A1031092D8041092DE04109231
:102FA000E5041092E6041092E7041092E80481E030
:102FB0008093E4048093E1041092E20492E0909301
:102FC000E3048093D704C8E6D1E0D093DC04C09337
:102FD000DB0488E691E00E94051B9093E004809357
:102FE000DF04009769F0FC019E01119221503040EE
:102FF000E1F788E790E09093DA048093D90408C061
:103000001092DC041092DB041092DA041092D904BE
:1030100086E08093DD048091D804882341F061E04C
:1030200086E00E94630D60E086E00E94340DE9E8CE
:10303000F1E0E491F0E0EE0FFF1FE758FE4F25911D
:10304000349187ED94E03093EA042093E904EBE6B1
:10305000F1E0E491E093EB041092BC041092BB0405
:103060001092BE041092BD049093D2048093D104B8
:103070001092D30427E72093D40441EC58E05093F6
:10308000D6044093D5041092B2041092B1049093E8
:10309000B8048093B7041092B90435E03093BA04B1
:1030A0001092A8041092A7049093AE048093AD04EC
:1030B00037E03093AF0438E03093B00410929E04B0
:1030C00010929D049093A4048093A3043AE030935B
:1030D000A5043BE03093A60410929404109293044C
:1030E00090939A04809399043CE030939B0432E1DE
:1030F00030939C0410928A04109289049093900457
:1031000080938F0434E13093910437E1309392043B
:103110001092800410927F0490938604809385041B
:1031200038E1309387043CE13093880410927604B0
:103130001092750490937C0480937B043DE130935E
:103140007D043FE130937E0410926C0410926B0476
:10315000909372048093710430E23093730433E2ED
:103160003093740410926204109261049093680486
:103170008093670434E2309369043AE230936A043E
:10318000109258041092570490935E0480935D044B
:103190003BE230935F043FE23093600410924E04B0
:1031A00010924D04909354048093530430E3309371
:1031B000550432E3309356041092440410924304B1
:1031C00090934A048093490433E330934B0435E3EE
:1031D00030934C0410923A041092390490934004B6
:1031E00080933F0437E33093410438E33093420443
:1031F0001092300410922F0490933604809335047B
:10320000309337043BE33093380410922604109235
:10321000250490932C0480932B043CE330932D04DD
:103220003EE330932E0410921C0410921B049093E2
:103230002204809321043FE33093230432E430934B
:103240002404109212041092110490931804809395
:10325000170433E43093190437E430931A041092BE
:1032600008041092070490930E0480930D0438E430
:1032700030930F043DE4309310041092FE0310923B
:10328000FD0390930404809303043EE4309305040B
:1032900033E5309306041092F4031092F3039093F5
:1032A000FA038093F90334E53093FB0338E5309358
:1032B000FC031092EA031092E9039093F0038093C9
:1032C000EF0339E53093F1033CE53093F2031092BC
:1032D000E0031092DF039093E6038093E5033DE55E
:1032E0003093E7033FE53093E8031092D603109242
:1032F000D5039093DC038093DB0330E63093DD034A
:1033000032E63093DE031092CC031092CB039093FD
:10331000D2038093D10333E63093D30336E6309360
:10332000D4031092C2031092C1039093C8038093F8
:10333000C70337E63093C9033BE63093CA031092C4
:10334000B8031092B7039093BE038093BD033CE68D
:103350003093BF0330E73093C0031092AE03109256
:10336000AD039093B4038093B30382E78093B503D6
:103370002093B603DF91CF9108958F929F92AF92E1
:10338000BF92CF92DF92EF92FF92CF93DF93EC0147
:10339000688179818A819B8161157105810591051B
:1033A00021F464E279ED8BE597E02DE133EF41E024
:1033B00050E00E94681A49015A019B01AC01A7EA3A
:1033C000B1E40E94871A6B017C01ACEEB4EFA50159
:1033D00094010E94951ADC01CB018C0D9D1DAE1D40
:1033E000BF1DB7FF03C00197A109B0488883998327
:1033F000AA83BB83BC01CD019F77DF91CF91FF9062
:10340000EF90DF90CF90BF90AF909F908F900895F6
:103410008F929F92AF92BF92CF92DF92EF92FF92E4
:103420006091060170910701809108019091090156
:10343000611571058105910521F464E279ED8BE553
:1034400097E02DE133EF41E050E00E94681A490116
:103450005A019B01AC01A7EAB1E40E94871A6B01F3
:103460007C01ACEEB4EFA50194010E94951ADC0139
:10347000CB018C0D9D1DAE1DBF1DB7FF03C0019775
:10348000A109B0488093060190930701A093080119
:10349000B0930901BC01CD019F77FF90EF90DF90C1
:1034A000CF90BF90AF909F908F900895609306014A
:1034B0007093070180930801909309010895FB011F
:1034C000DC0102C005900D9241505040D8F708959C
:1034D000052E97FB1EF400940E947F1A57FD07D01B
:1034E0000E949A1A07FC03D04EF40C947F1A509550
:1034F0004095309521953F4F4F4F5F4F08959095E0
:103500008095709561957F4F8F4F9F4F08950E94D2
:10351000BC1AA59F900DB49F900DA49F800D911D86
:1035200011240895B7FF0C94871A0E94871A821BF2
:10353000930B0895A1E21A2EAA1BBB1BFD010DC01F
:10354000AA1FBB1FEE1FFF1FA217B307E407F50753
:1035500020F0A21BB30BE40BF50B661F771F881F2F
:10356000991F1A9469F760957095809590959B01C5
:10357000AC01BD01CF010895A29FB001B39FC0016E
:10358000A39F700D811D1124911DB29F700D811D8F
:103590001124911D0895991B79E004C0991F961775
:1035A00008F0961B881F7A95C9F780950895AA1B85
:1035B000BB1B51E107C0AA1FBB1FA617B70710F01E
:1035C000A61BB70B881F991F5A95A9F78095909550
:1035D000BC01CD01089597FB072E16F4009407D087
:1035E00077FD09D00E94D71A07FC05D03EF49095CC
:1035F00081959F4F0895709561957F4F0895EE0FC7
:10360000FF1F0590F491E02D09940F931F93CF9322
:10361000DF938230910510F482E090E0E091F904AC
:10362000F091FA0420E030E0A0E0B0E0309719F12A
:10363000408151810281138148175907C8F08417CE
:10364000950769F4109731F012960C931297139620
:103650001C9327C00093F9041093FA0422C021158B
:10366000310519F04217530718F49A01BD01EF0113
:10367000DF01F801DBCF21153105F9F0281B390BEB
:103680002430310580F48A819B816115710521F018
:10369000FB019383828304C09093FA048093F9041E
:1036A000FE01329644C0FE01E20FF31F8193919315
:1036B00022503109398328833AC02091F704309190
:1036C000F804232B41F420910C0130910D0130932B
:1036D000F8042093F70420910A0130910B01211581
:1036E000310541F42DB73EB740910E0150910F01C5
:1036F000241B350BE091F704F091F804E217F3076F
:10370000A0F42E1B3F0B2817390778F0AC014E5F51
:103710005F4F2417350748F04E0F5F1F5093F80492
:103720004093F7048193919302C0E0E0F0E0CF0171
:10373000DF91CF911F910F910895CF93DF93009761
:1037400009F481C0FC01329713821282A091F9041E
:10375000B091FA04109781F420813181820F931F78
:103760002091F7043091F8042817390751F5F093A8
:10377000F804E093F70467C0ED0120E030E0CE17D5
:10378000DF0740F44A815B819E0141155105F1F04C
:10379000EA01F5CFD383C28340815181840F951F05
:1037A000C817D90759F488819981840F951F02960B
:1037B000918380838A819B81938382832115310544
:1037C00029F4F093FA04E093F9043DC0E901FB8386
:1037D000EA8349915991C40FD51FEC17FD0761F495
:1037E00080819181840F951F0296E90199838883D6
:1037F000828193819B838A83E0E0F0E012968D9131
:103800009C911397009719F0FD01DC01F7CF8D9182
:103810009C9111979D012E5F3F4F820F931F209126
:10382000F7043091F8042817390769F4309729F420
:103830001092FA041092F90402C013821282B0931B
:10384000F804A093F704DF91CF91089581E090E010
:10385000F8940C942B1C10E0CCEDD0E004C0FE01D9
:103860000E94FF1A2196CD3DD107C9F7F894FFCFEA
:10387000FFFF00800000010000000000FB0480004A
:103880000B0A0908070605040302010017182F3068
:1038900047485F6077767574737271706F6E6D6C88
:1038A0006B54533C3B24230C0D0E0F1011121314B8
:1038B0001516192E3146495E616263646566676854
:1038C000696A55523D3A252221201F1E1D1C1B1AD4
:1038D0002D32454A5D5C5B5A59585756513E392640
:1038E0002728292A2B2C33444B4C4D4E4F503F3820
:1038F0003736353443424140000000009A01070149
:103900003101E70162014001540100000000A00202
:103910007302D00247026B0257024802537461726D
:1039200074696E672E2E2E00525443206C6F737490
:1039300020706F7765722C206C65747320736574CA
:10394000207468652074696D652100427574746F18
:103950006E20555000427574746F6E20444F574E60
:10396000005570646174696E672074696D652068C4
:103970006F7572206F666673657420746F20000D1A
:103980000A00436865636B696E672074686520741C
:10399000696D652E2E2E005570646174696E672006
:0E39A0007468652074696D6520746F200000E6
:107E0000112484B714BE81FFF0D085E080938100F7
:107E100082E08093C00088E18093C10086E0809377
:107E2000C20080E18093C4008EE0C9D0259A86E02C
:107E300020E33CEF91E0309385002093840096BBD3
:107E4000B09BFECF1D9AA8958150A9F7CC24DD24C4
:107E500088248394B5E0AB2EA1E19A2EF3E0BF2EE7
:107E6000A2D0813461F49FD0082FAFD0023811F036
:107E7000013811F484E001C083E08DD089C08234E0
:107E800011F484E103C0853419F485E0A6D080C0E4
:107E9000853579F488D0E82EFF2485D0082F10E0AE
:107EA000102F00270E291F29000F111F8ED06801E7
:107EB0006FC0863521F484E090D080E0DECF843638
:107EC00009F040C070D06FD0082F6DD080E0C81688
:107ED00080E7D80618F4F601B7BEE895C0E0D1E017
:107EE00062D089930C17E1F7F0E0CF16F0E7DF06D8
:107EF00018F0F601B7BEE89568D007B600FCFDCFD4
:107F0000A601A0E0B1E02C9130E011968C91119780
:107F100090E0982F8827822B932B1296FA010C0160
:107F200087BEE89511244E5F5F4FF1E0A038BF0790
:107F300051F7F601A7BEE89507B600FCFDCF97BE46
:107F4000E89526C08437B1F42ED02DD0F82E2BD052
:107F50003CD0F601EF2C8F010F5F1F4F84911BD097
:107F6000EA94F801C1F70894C11CD11CFA94CF0C13
:107F7000D11C0EC0853739F428D08EE10CD085E9AC
:107F80000AD08FE07ACF813511F488E018D01DD067
:107F900080E101D065CF982F8091C00085FFFCCF94
:107FA0009093C60008958091C00087FFFCCF809118
:107FB000C00084FD01C0A8958091C6000895E0E648
:107FC000F0E098E1908380830895EDDF803219F02E
:107FD00088E0F5DFFFCF84E1DECF1F93182FE3DFCA
:107FE0001150E9F7F2DF1F91089580E0E8DFEE27F6
:047FF000FF270994CA
:027FFE00040479
:0400000300007E007B
:00000001FF
