:100000000C94DD000C9405010C9405010C94050181
:100010000C9405010C9405010C9405010C94050148
:100020000C9405010C9405010C9405010C94050138
:100030000C9405010C9405010C9405010C94050128
:100040000C94F60D0C9405010C943C030C941603CF
:100050000C9405010C9405010C9405010C94050108
:100060000C94AE040C9405013A0F570F570F550F1F
:10007000570F280F570F570F570F2B0F570F570FAB
:10008000430F520F4F0F570F570F570F4C0FD511EC
:10009000F911261259128D120414B915121469148B
:1000A000EE1426156C156C152615EE146914121431
:1000B00013161E163116381640165A1640165A16C2
:1000C00040165A1640165A164016601613161E167B
:1000D0003116381640165A1640165A1640165A1639
:1000E00040165A1640166016440829083408390884
:1000F0003E08490854085C08620868086E088E08C3
:100100009108940897089A089D08A008A308A608D3
:10011000A908AC08AF088E089108940897089A08B7
:100120009D08A008A308A608A908AC082809530937
:100130009809DF091D0A660A9F0A31373A33343AB3
:1001400033330041707220323720323031390000B1
:100150000000002300260029001F1C1F1E1F1E1F59
:100160001F1E1F1E1F00000000240027002A000081
:100170000000080002010000030407000000000066
:100180000000000102040810204080010204081051
:100190002001020408102000000000250028002B88
:1001A0000004040404040404040202020202020320
:1001B0000303030303005317451711241FBECFEF9A
:1001C000D8E0DEBFCDBF12E0A0E0B1E0ECE2F8E3A2
:1001D00002C005900D92AE33B107D9F725E0AEE32A
:1001E000B2E001C01D92A133B207E1F710E0CCEDFF
:1001F000D0E004C02197FE010E94DD1ACB3DD1075B
:10020000C9F70E94400E0C94091C0C940000CF9278
:10021000DF92EF92FF920F931F93CF93DF936C01C6
:100220007A018B01C0E0D0E0CE15DF0581F0D80166
:100230006D918D01D601ED91FC910190F081E02D41
:10024000C6010995892B11F02196EECF7E01C701D9
:10025000DF91CF911F910F91FF90EF90DF90CF90A2
:100260000895FC01538D448D252F30E0842F90E0BC
:10027000821B930B541710F0CF96089501970895A1
:10028000FC01918D828D981761F0828DDF01A80F9E
:10029000B11D5D968C91928D9F5F9F73928F90E0C0
:1002A00008958FEF9FEF0895FC01918D828D98172F
:1002B00031F0828DE80FF11D858D90E008958FEF6C
:1002C0009FEF0895FC01918D228D892F90E0805C35
:1002D0009F4F821B91098F73992708958EE093E0B9
:1002E0000E94620121E0892B09F420E0822F089509
:1002F000FC01848DDF01A80FB11DA35ABF4F2C91C3
:10030000848D90E001968F739927848FA689B78991
:100310002C93A089B1898C91837080648C93938D88
:10032000848D981306C00288F389E02D80818F7D2B
:1003300080830895EF92FF920F931F93CF93DF93E3
:10034000EC0181E0888F9B8D8C8D981305C0E88926
:10035000F989808185FD26C0F62E0B8D10E00F5F98
:100360001F4F0F731127E02E8C8DE8120CC00FB6B3
:1003700007FCFACFE889F989808185FFF5CFCE01A6
:100380000E947801F1CF8B8DFE01E80FF11DE35A39
:10039000FF4FF0829FB7F8940B8FEA89FB89808129
:1003A00080620AC09FB7F894EE89FF896083E8896C
:1003B000F98980818370806480839FBF81E090E0B1
:1003C000DF91CF911F910F91FF90EF900895CF9300
:1003D000DF93EC01888D8823C9F0EA89FB8980814D
:1003E00085FD05C0A889B9898C9186FD0FC00FB61F
:1003F00007FCF5CF808185FFF2CFA889B9898C9160
:1004000085FFEDCFCE010E947801E7CFDF91CF913C
:10041000089580E090E0892B29F00E946E018111FF
:100420000C940000089585ED8093BC008091BC0081
:1004300084FDFCCF10920D03089540917602262F83
:1004400030E0240F311D21323105DCF420910D0301
:100450002430C9F4FC0180E090E0861758F4309114
:1004600076022191DC01AA5ABD4FA30FB11D2C9336
:100470000196F3CF80917602680F6093760280E058
:10048000089581E0089582E00895089508950895FB
:10049000E091A2028091A102E81730F4F0E0E95364
:1004A000FD4F808190E008958FEF9FEF0895909128
:1004B000A2028091A102981750F4E92FF0E0E953CD
:1004C000FD4F208130E09F5F9093A20202C02FEF8A
:1004D0003FEFC90108958091A10290E02091A2020E
:1004E000821B91090895CF92DF92EF92FF920F93B2
:1004F0001F93CF93DF937C01CB018A012091A3024C
:10050000222389F0EB016B01C40ED51ECC15DD054D
:1005100069F06991D701ED91FC910190F081E02D96
:10052000C7010995F3CF642F0E941D02C801DF9116
:10053000CF911F910F91FF90EF90DF90CF90089592
:10054000CF93DF931F92CDB7DEB769832091A302CB
:100550002223D1F02091C602203240F021E030E089
:10056000FC013383228380E090E015C08091A402D7
:10057000E82FF0E0EB55FD4F998190838F5F8093DA
:10058000A4028093C60205C061E0CE0101960E94DC
:100590001D0281E090E00F90DF91CF9108950895C2
:1005A00080E090E008950E94041CAF92BF92CF9229
:1005B000DF92EF92FF920F931F93CF93DF93CDB70C
:1005C000DEB728970FB6F894DEBF0FBECDBF0E94EE
:1005D000E61920E030E041E050E00E94461A6B014D
:1005E0007C01CB010E94460B162FA72EB82E092F97
:1005F000D701C601AA27BB279058AF4FBF4F0E9413
:10060000460B212F3A2D4B2D502F28960FB6F894DC
:10061000DEBF0FBECDBFDF91CF911F910F91FF9035
:10062000EF90DF90CF90BF90AF9008951F920F9200
:100630000FB60F9211242F933F934F935F936F93B5
:100640007F938F939F93AF93BF93EF93FF938EE02E
:1006500093E00E947801FF91EF91BF91AF919F913C
:100660008F917F916F915F914F913F912F910F905B
:100670000FBE0F901F9018951F920F920FB60F92FA
:1006800011242F938F939F93EF93FF93E0911E0379
:10069000F0911F038081E0912403F091250382FDF6
:1006A00012C09081809127038F5F8F732091280360
:1006B000821751F0E0912703F0E0E25FFC4F958F45
:1006C0008093270301C08081FF91EF919F918F91CB
:1006D0002F910F900FBE0F901F9018957F928F92C1
:1006E0009F92AF92BF92CF92DF92EF92FF920F93C1
:1006F0001F93CF93DF93FC01828193816817790761
:1007000008F053C04A01AA24BB24782CC32ED42E4F
:10071000E52EFF24BC2DA22F8781882361F0889EBF
:1007200040011124792C8C9D60011124BD2D829FE4
:1007300070011124AF2D9585D285E084F1849D133D
:1007400008C0CB01880F991F680F791F6E0D7F1DA0
:100750001CC0660F771F660F771F6E0D7F1D052F5C
:100760001127222733277B01E90EF11C811102C0DA
:10077000202F09C090E0809F6001819FD00C909F46
:10078000D00C11242D2DE701288382859B01280F91
:10079000311DE90178828385EB01C80FD11DB88333
:1007A0008485FB01E80FF11DA083DF91CF911F919C
:1007B0000F91FF90EF90DF90CF90BF90AF909F9000
:1007C0008F907F900895CF92DF92EF92FF920F93D8
:1007D0001F93CF93DF93CDB7DEB729970FB6F89469
:1007E000DEBF0FBECDBF8C01DC0118968D919C91B0
:1007F0001997892B09F4A3C00E94C50DF801C6847E
:10080000D784E088F188DC01CB018C199D09AE0901
:10081000BF098C329140A105B10570F3F894D8015D
:1008200014968D919C9115979A8389831896ED91D2
:10083000FC9119977F01BFEFEB1AFB0A8081898732
:10084000F80190810288F389E02DD80154968C91AB
:10085000992309F430C09081982B988790818095D6
:1008600089238F838F818C8388E08B8358856F8168
:1008700049853B812C8189819A81D701508347FD2D
:10088000252F3A952083262F39F0441F00C0000001
:100890006083000000C0F2CF38E04D91608300001B
:1008A000019761F7D8015396FC93EE9352974987CD
:1008B0003B832C833AC09081982B988790818095B8
:1008C00089238F838F818E8388E08D8358856F8104
:1008D00049853D812E8189819A81D701508347FDC9
:1008E000252F00C000C0208300C000C000C000C091
:1008F00000C060830000262F3A9541F0441F00009D
:1009000000C000C000C000C000C0E8CF38E04D917A
:1009100000C0608300C0019709F7D8015396FC938B
:10092000EE93529749873D832E839A8389837894E7
:100930000E94C50DF80166877787808B918B299679
:100940000FB6F894DEBF0FBECDBFDF91CF911F91E0
:100950000F91FF90EF90DF90CF9008951F920F922C
:100960000FB60F9211242F933F934F935F936F9382
:100970007F938F939F93AF93BF93EF93FF93809158
:10098000B900887F803609F49CC068F5883209F484
:100990005BC090F4803109F454C038F4882309F422
:1009A000F6C0883009F44DC0F6C0883109F44CC057
:1009B000803209F45DC0EFC0803409F468C048F4A7
:1009C000803309F455C0883309F0E5C080930B03E8
:1009D000D8C0803509F44FC0883509F45DC088342B
:1009E00009F0D9C0D6C0883909F4C7C0A8F488373F
:1009F00009F467C038F4883609F463C0803709F415
:100A000060C0C9C0883809F4B8C0803909F45FC033
:100A1000803809F0C0C05BC0803B09F486C038F460
:100A2000803A09F466C0883A09F47FC0B4C0803CBB
:100A300009F4A7C0883C09F4A4C0883B09F48AC023
:100A4000AAC08091080310C090910A038091090305
:100A5000981770F5E0910A0381E08E0F80930A03E6
:100A6000F0E0E951FD4F80818093BB0085EC86C0AA
:100A700080930B038EC0E0910A0381E08E0F809378
:100A80000A038091BB00F0E0E951FD4F8083909113
:100A90000A03809109036EC0E0910A0381E08E0F82
:100AA00080930A038091BB00F0E0E951FD4F808301
:100AB00080910C0381116DC081E08093070384EA6B
:100AC00061C083E080930D0310929802CFCF809194
:100AD0009802803208F051C0E091980281E08E0FB8
:100AE000809398028091BB00F0E0E858FD4F80832E
:100AF000BDCF85EC8093BC0010920D0380919802CD
:100B0000803230F4E0919802F0E0E858FD4F108216
:100B10006091980270E0E0913E02F0913F0288E718
:100B200092E009951092980236C084E080930D03FC
:100B30001092770210927602E0914002F091410209
:100B4000099580917602811105C081E0809376023B
:100B500010925602E091770281E08E0F8093770227
:100B6000F0E0EA5AFD4F80818093BB0090917702BC
:100B700080917602981708F479CF85E88093BC00BD
:100B80000AC085EC8093BC0010920D0304C0109243
:100B90000B030E941302FF91EF91BF91AF919F91C0
:100BA0008F917F916F915F914F913F912F910F9016
:100BB0000FBE0F901F9018955F926F927F928F9249
:100BC0009F92AF92BF92CF92DF92EF92FF920F93DC
:100BD0001F93CF93DF93EC0181E08093A30288E61B
:100BE0008093C5021092A4021092C60260E08BEAC4
:100BF00093E00E94A0020E946A0C67E088E60E94CF
:100C0000280C1092A2028093A1028BEA93E00E942A
:100C100057028F77982F92959F702AEFF22E782E99
:100C20009F9D700C11248BEA93E00E9457029C0157
:100C3000332744E0359527954A95E1F7182FF29E22
:100C4000100D11248BEA93E00E9457029C01332778
:100C500054E0359527955A95E1F7082FF29E000D3F
:100C600011248BEA93E00E9457028BEA93E00E94E2
:100C70005702BC017727E4E075956795EA95E1F79F
:100C8000582EF69E500C11248BEA93E00E945702D6
:100C90009C013327F4E035952795FA95E1F7682E06
:100CA000F29E600C11248BEA93E00E9457029C0193
:100CB0003327A4E035952795AA95E1F7F29E800D9C
:100CC0001124C82ED12C760190E3E91A98EFF90A85
:100CD000888369825A820B831C837D822091420221
:100CE000222309F4B4C030E0A0E1BEE00E949A1AC9
:100CF0004B015C01452D50E0E9E5F1E081E086150E
:100D000030F49491490F511D8F5F3196F8CF82E0F6
:100D1000861538F4C60183709927892B11F44F5F2B
:100D20005F4F9DECE91A97E0F90AF694E794F69480
:100D3000E7942DE631E0C29EC001C39E900DD29E85
:100D4000900D11249701280F391F21503109240FCC
:100D5000351FA8E1B0E00E949A1A9B01AC01200F58
:100D6000311D411D511DACE3B0E00E94651A9B018D
:100D7000AC01210F311D411D511D0E94651ADC017E
:100D8000CB01870D911DA11DB11D880E991EAA1EB4
:100D9000BB1E9CE3C92ED12CE12CF12CC501B40162
:100DA000A70196010E94781A162FCA01B901A7015E
:100DB00096010E94781A062FC501B40120E13EE099
:100DC00040E050E00E94781ACA01B90128E130E001
:100DD00040E050E00E94781AF62EC501B40120E8E8
:100DE00031E541E050E00E94781A40E0542F537002
:100DF00081E009F080E061E0640F90E0FC01E359DC
:100E0000FE4F2E173F0710F481E012C0281B390B4C
:100E10002D563140462FEACF823009F4EF5FF0E0E3
:100E200091E0980F2E173F0758F02E1B3F0B892F8C
:100E3000E82FF0E0E85AFE4FE4915111F0CFECCFEB
:100E4000488389832F5F2A83FB820C831D83CE0115
:100E5000DF91CF911F910F91FF90EF90DF90CF9096
:100E6000BF90AF909F908F907F906F905F9008950C
:100E7000CF92DF92EF92FF920F931F93CF938C014B
:100E80006A017B01FC01C285F8012385808591857B
:100E90002C1740F06C2F70E0A70196010E946E03A2
:100EA000CF5FF2CFCF911F910F91FF90EF90DF9026
:100EB000CF900C94E303FC0180819181892B69F030
:100EC000118210821382128216821582148240E0EF
:100ED00050E0BA01CF010C943807089587ED94E0F3
:100EE0000E945B0783EE94E00E945B078FEE94E024
:100EF0000E945B078FEB94E00E945B078BEC94E011
:100F00000E945B078BE994E00E945B0787EA94E00C
:100F10000E945B0783EB94E00E945B0783E894E008
:100F20000E945B078FE894E00E945B0783E594E0F2
:100F30000E945B078FE594E00E945B078BE694E0DC
:100F40000E945B0787E794E00E945B078FE294E0D2
:100F50000E945B078BE394E00E945B0787E494E0C8
:100F60000E945B0787E194E00E945B0783E294E0C4
:100F70000E945B0783EF93E00E945B078FEF93E093
:100F80000E945B078BE094E00E945B0787EE93E092
:100F90000E945B078BED93E00E945B078FEC93E070
:100FA0000E945B0787EB93E00E945B0783EC93E072
:100FB0000C945B07CF93DF93EC0182E090E0998380
:100FC00088837B836A831E820E94E61920E031E0D9
:100FD00040E050E00E94461A6F83DF91CF91089560
:100FE000CF93DF93C82FD62F84E292E00E94EF0ABE
:100FF0008C2F0E94210C6AE38EE093E00E949A01FC
:101000008D2F0E94210C0E94010BC0930001D093F0
:10101000010180E00E94D3080E946E0768E270E040
:1010200087ED94E00E94DA0768E270E083EE94E0D6
:101030000E94DA078D2F65E00E94A91A90E0FC015A
:101040003197EB30F10508F05CC0EC58FF4F0C9481
:10105000DD1A68E270E087EA94E00E94DA0768E24D
:1010600070E08FE894E019C068E270E08BEC94E0E7
:1010700014C068E270E08FEE94E0EFCF68E270E0B9
:101080008FEE94E00E94DA0768E270E08BE994E06A
:10109000E4CF68E270E08FEB94E00E94DA0768E248
:1010A00070E083E594E02BC0CF5F68E270E08FEEE4
:1010B00094E00E94DA0713C0CF5F68E270E08FEE21
:1010C00094E011C0CF5F68E270E08BEC94E011C057
:1010D000CF5F68E270E087EA94E005C0CF5F68E226
:1010E00070E08BE994E00E94DA0768E270E08FE834
:1010F00094E00E94DA0768E270E08FE594E00E94D5
:10110000DA078C2F90E0FC01319768E270E0E7315C
:10111000F10528F5E158FF4F0C94DD1A8BE694E0B9
:1011200020C087E494E01DC08BE094E01AC08FEFEC
:1011300093E017C08BE394E014C083EF93E011C0F9
:101140008FEC93E00EC083EC93E00BC08BED93E04B
:1011500008C087EE93E005C087E194E002C083E217
:1011600094E00E94DA0768E270E087EB93E0DF9199
:10117000CF910C94DA07CF93DF9300D000D000D04A
:10118000CDB7DEB7CE0101960E94DC056D818C8162
:101190000E94F00726960FB6F894DEBF0FBECDBFB3
:1011A000DF91CF910895CF93209144023091450271
:1011B000232B71F0C82F1092450210924402109216
:1011C00043020E94B50BCC2319F0CF910C94BB08BD
:1011D000CF910895CF92DF92EF92FF920F931F93DA
:1011E000CF93DF93CDB7DEB728970FB6F894DEBF65
:1011F0000FBECDBF2091440230914502223031050F
:1012000009F09DC18C016C01990FEE08FF08F7FEF3
:101210000EC06DE28EE093E00E949A016627772768
:10122000CB016C197D098E099F094AE003C04AE091
:10123000C701B6010E94050B0E94010BF80132970D
:10124000E730F10508F07BC1EA56FF4F0C94DD1A38
:1012500083E090E09093FC048093FB0488E090E0AE
:10126000909300058093FF048FEF90E090930C051E
:1012700080930B0510920E0510920D051092FE043E
:101280001092FD04109203051092040510920505BA
:101290001092060510920705109208051092090594
:1012A00010920A0588C084E090E09093FC0480933B
:1012B000FB0484E690E0909300058093FF04809106
:1012C00014058F5F90911305891B90E090930C0596
:1012D00080930B0510920E0510920D051092FE04DE
:1012E0001092FD040E94D50229833A834B835C83CC
:1012F0006D837E838F83988789819A81AB81BC813E
:101300008093030590930405A0930505B09306050B
:101310008D819E81AF81B8858093070590930805E4
:10132000A0930905B0930A051092100581E004C14D
:1013300085E090E09093FC048093FB0488E090E0CB
:10134000909300058093FF04809114058F5F909126
:101350001305891B90E0880F991F90930C058093CB
:101360000B0510920E0510920D051092FE041092BE
:10137000FD040E94D50229833A834B835C836D83ED
:101380007E838F83988789819A81AB81BC8180938A
:10139000030590930405A0930505B09306058D8180
:1013A0009E81AF81B8858093070590930805A0932F
:1013B0000905B0930A051092100585E0BDC086E0CE
:1013C00090E09093FC048093FB048EE190E0909376
:1013D00000058093FF04809114058F5F90911305A1
:1013E000891B90E00197880F991F90930C058093BB
:1013F0000B0510920E0510920D051092FE0410922E
:10140000FD040E94E61920E030E041E050E00E9437
:10141000461ACB010E94460B6093030570930405A6
:101420008093050590930605109207051092080514
:101430001092090510920A0545C0809114058F5F2E
:1014400090911305891B883708F48AC087E090E0E3
:101450009093FC048093FB0484EF91E0909300054B
:101460008093FF048AE090E090930C0580930B0535
:1014700010920E0510920D051092FE041092FD04BC
:101480000E94D50229833A834B835C836D837E83DC
:101490008F83988789819A81AB81BC818093030572
:1014A00090930405A0930505B09306058D819E8158
:1014B000AF81B8858093070590930805A09309052F
:1014C000B0930A051092100583E036C08091140590
:1014D0008F5F90911305891B883708F441C088E01D
:1014E00090E09093FC048093FB0485E190E090935E
:1014F00000058093FF0480EF90E090930C058093AB
:101500000B0510920E0510920D051092FE0410921C
:10151000FD04109203051092040510920505109227
:101520000605109207051092080510920905109201
:101530000A051092100584E080930F0511C081E028
:1015400028960FB6F894DEBF0FBECDBFDF91CF91C6
:101550001F910F91FF90EF90DF90CF900C94D308E4
:1015600028960FB6F894DEBF0FBECDBFDF91CF91A6
:101570001F910F91FF90EF90DF90CF900895CF9340
:10158000DF93EC0188819981029730F12C813D81B4
:101590008091460290914702820F931F9D838C8316
:1015A0002A813B8182179307B8F09F818E81890F32
:1015B00021E031E0482F429FC001439F900D11244C
:1015C0000E94460BAB01BC01CE010E9438071D8270
:1015D0001C828E818F5F8E83DF91CF91089500975B
:1015E00069F0FC0101900020E9F73197AF01481B39
:1015F000590BBC018EE093E00C94070180E090E071
:1016000008958AE392E00C94EF0A8F929F92AF9232
:10161000BF920F931F93CF93DF93CDB7DEB7A19700
:101620000FB6F894DEBF0FBECDBF19A2423008F44A
:101630004AE08E010F5D1F4F842E912CA12CB12CFE
:10164000A50194010E94781AE62FB901CA01015040
:101650001109EA3014F4E05D01C0E95CD801EC93B3
:10166000232B242B252B61F7C8010E94EF0AA1969A
:101670000FB6F894DEBF0FBECDBFDF91CF911F91A3
:101680000F91BF90AF909F908F9008950F931F93ED
:101690009C01AAEFB5E00E949A1ADC01CB01905898
:1016A000AF4FBF4FCD01BB2797FDB095AB2F8E3FFE
:1016B00001E0900760F48F3F910518F4682F80E0F7
:1016C00029C06EEF962F981B80E06FEF24C08C3FEF
:1016D00013E0910760F48D3F42E0940718F48E5FA9
:1016E0006FEF03C06CEF681B8FEF90E014C08A3F70
:1016F00005E0900769F08B3F14E0910728F494E02F
:10170000980F8FEF60E007C06AEF681B862F01C05B
:1017100080E060E09FEF292F30E0E62FF0E0482FD7
:1017200050E0CF01A0E0B0E0BA2FA92F982F882772
:101730008827AA27BB2760E070E0482B592B6A2B2B
:101740007B2BC901A0E0B0E0DC019927882788271E
:101750009927BB278A019B01082B192B2A2B3B2B8E
:10176000C901B8011F910F910895CF938091FB0497
:101770009091FC04892B09F442C01092FC04109251
:10178000FB04109200051092FF0410920C051092B9
:101790000B0510920E0510920D051092FE0410928A
:1017A000FD0410920205109201051092030510929B
:1017B0000405109205051092060510920705109277
:1017C00008051092090510920A0510921005109252
:1017D0000F05C0911305209114058091110590917A
:1017E00012052C1748F06C2F70E020E030E0A901C2
:1017F0000E946E03CF5FEFCFCF910C94E303CF91A4
:101800000895CF93DF9390910F059923B9F08091BC
:1018100010058F5F80931005891780F0C091FB043D
:10182000D091FC040E94B50BE0911505F0911605CE
:10183000309721F0CE01DF91CF910994DF91CF91C4
:101840000895682F70E080E090E04AE00C94050B6A
:1018500090910D039111FCCF91E090930D03909323
:101860000C032FEF20930B0310920A03260F2093F3
:1018700009039093080390910803880F892B8093A4
:10188000080380910703813061F41092070380916F
:1018900008038093BB008091BC0083FDF8CF85ECEA
:1018A00001C085EE8093BC0080910D038130E1F38F
:1018B00080910A03861710F460910A03A7EEB2E044
:1018C000E7ECF2E080E0861721F09D9191938F5F25
:1018D000FACF08953091C602313208F04BC08091A2
:1018E0000D038111FCCF9091C50222E020930D03DE
:1018F00021E020930C032FEF20930B0310920A0397
:1019000030930903E5EAF2E0A7EEB2E020E03217F7
:1019100021F041914D932F5FFACF1092080320914F
:101920000803990F922B909308039091070391302D
:1019300061F410920703909108039093BB0090917B
:10194000BC0093FDF8CF95EC01C095EE9093BC00E0
:1019500090910D039230E1F390910B039F3F79F04A
:1019600080910B03803241F080910B03803331F082
:1019700084E005C081E003C082E001C083E01092F2
:10198000A4021092C6021092A302089510920205BA
:10199000109201052091FD043091FE0480910D0507
:1019A00090910E05232B89F4019690930E05809358
:1019B0000D0520910B0530910C0582179307B8F0A7
:1019C00010920E0510920D0510C0019790930E0510
:1019D00080930D05892B59F480910B0590910C058E
:1019E000019790930E0580930D050C94010C0895BA
:1019F000EFE2F4E081E090E0918380831682178229
:101A000044E958E168EF70E0CF010C94380781E0B9
:101A10008093A30288E68093C5021092A4021092DC
:101A2000C6026FE08BEA93E00E94A0020E946A0C5B
:101A300061E088E60E94280C1092A2028093A10225
:101A40008BEA93E00E9457020895CF93DF930E94A0
:101A5000EF0AEC010E94010B8C0F9D1FDF91CF91CB
:101A60000895833081F028F4813099F08230A1F01C
:101A700008958730A9F08830B9F08430D1F480918E
:101A800080008F7D03C0809180008F7780938000DD
:101A9000089584B58F7702C084B58F7D84BD089585
:101AA0008091B0008F7703C08091B0008F7D8093CC
:101AB000B00008951F93CF93DF93282F30E0F901F2
:101AC000E159FE4F8491F901ED57FE4FD491F90190
:101AD000EF55FE4FC491CC23C1F0162F81110E9407
:101AE000310DEC2FF0E0EE0FFF1FE956FE4FA591F0
:101AF000B4919FB7F894111104C08C91D095D8235C
:101B000002C0EC91DE2BDC939FBFDF91CF911F9140
:101B10000895CF93DF9390E0FC01ED57FE4F2491A1
:101B2000FC01EF55FE4F8491882361F190E0880F0E
:101B3000991FFC01EB59FE4FC591D491FC01E95668
:101B4000FE4FA591B491611109C09FB7F8948881A7
:101B5000209582238883EC912E230BC0623061F4A0
:101B60009FB7F8948881322F309583238883EC9136
:101B70002E2B2C939FBF06C08FB7F894E8812E2B95
:101B800028838FBFDF91CF9108953FB7F89480915C
:101B90009D0290919E02A0919F02B091A00226B555
:101BA000A89B05C02F3F19F00196A11DB11D3FBF95
:101BB000BA2FA92F982F8827820F911DA11DB11D23
:101BC000BC01CD0142E0660F771F881F991F4A951F
:101BD000D1F708952FB7F8946091990270919A0205
:101BE00080919B0290919C022FBF08951F920F92AB
:101BF0000FB60F9211242F933F938F939F93AF9320
:101C0000BF938091990290919A02A0919B02B0910A
:101C10009C0230912C0523E0230F2D3720F40196F0
:101C2000A11DB11D05C026E8230F0296A11DB11DFF
:101C300020932C058093990290939A02A0939B0283
:101C4000B0939C0280919D0290919E02A0919F0270
:101C5000B091A0020196A11DB11D80939D029093A9
:101C60009E02A0939F02B093A002BF91AF919F915B
:101C70008F913F912F910F900FBE0F901F9018954D
:101C8000CF93DF93CDB7DEB764970FB6F894DEBF7E
:101C90000FBECDBF789484B5826084BD84B5816069
:101CA00084BD85B5826085BD85B5816085BD809127
:101CB0006E00816080936E0010928100809181009F
:101CC0008260809381008091810081608093810097
:101CD000809180008160809380008091B100846059
:101CE0008093B1008091B00081608093B0008091BA
:101CF0007A00846080937A0080917A008260809379
:101D00007A0080917A00816080937A0080917A00D5
:101D1000806880937A001092C100E0911E03F091D8
:101D20001F0382E08083E0911A03F0911B0310826D
:101D3000E0911C03F0911D0387E680831092260337
:101D4000E0912203F091230386E08083E091200359
:101D5000F0912103808180618083E0912003F091E4
:101D60002103808188608083E0912003F09121032A
:101D7000808180688083E0912003F091210380813D
:101D80008F7D80838CEA91E00E94250D62E088E0DF
:101D90000E94890D1092A2021092A1021092A40238
:101DA0001092C60210920D0381E080930C031092F2
:101DB000070361E082E10E945A0D61E083E10E9425
:101DC0005A0D8091B9008E7F8093B9008091B9003F
:101DD0008D7F8093B90088E48093B80085E4809378
:101DE000BC0085E492E0909341028093400286E437
:101DF00092E090933F0280933E020E94070D90E094
:101E0000880F892F881F990B892B09F4F0C088EB64
:101E100091E00E94250D4BE050E063E471E0CE01BB
:101E200001960E943D1ACE010A960E943817E82EAC
:101E3000E9814E2FEE0F550B660B770BFA01E1543B
:101E4000F109E331F10598F5EC5CFF4F0C94DD1AD4
:101E500022E0F22E2CC08A81813631F08B818E36C1
:101E600031F097E0F92E23C0FF24F39420C086E0E0
:101E7000F82E1DC08B81823719F0B8E0FB2E17C0F9
:101E8000A4E0FA2E14C08B81823719F0F5E0FF2E02
:101E90000EC0E3E0FE2E0BC079E0F72E08C06AE02A
:101EA000F62E05C05BE0F52E02C04CE0F42ECE010C
:101EB00005960E943817A82E48E050E06AE371E0CA
:101EC000CE0101960E943D1ACE0101960E9438175C
:101ED000982ECE0104960E943817882ECE010796C0
:101EE0000E943817782EBB24B394B092A30228E640
:101EF000C22EC092C5021092A4021092C60260E0E7
:101F00008BEA93E00E94A0023AE0D32E872D6D2D3C
:101F10000E94A91A682F660F860F880F682F670D19
:101F20008BEA93E00E94A002882D6D2D0E94A91AD1
:101F3000682F660F860F880F682F680D8BEA93E075
:101F40000E94A002892D6D2D0E94A91A682F660F8C
:101F5000860F880F682F690D8BEA93E00E94A0021C
:101F600060E08BEA93E00E94A0028A2D6D2D0E9412
:101F7000A91A682F660F860F880F682F6A0D8BEAE3
:101F800093E00E94A0028F2D6D2D0E94A91A682F48
:101F9000660F680F660F6F0D8BEA93E00E94A00238
:101FA0008E2D6D2D0E94A91A682F660F680F660F7F
:101FB0006E0D8BEA93E00E94A0020E946A0C0E94C0
:101FC000070DF82EB092A302C092C5021092A4028F
:101FD0001092C6026FE08BEA93E00E94A0026F2D80
:101FE0006F778BEA93E00E94A0020E946A0C8091B6
:101FF0001D0587FD08C061E00E94890D60E08091A9
:102000001D050E945A0D81E08093180560911E0500
:10201000613821F120911F0530912005615031F088
:1020200070E08FEF90E80E94B51A02C060E070E0A7
:10203000F90140911B0550911C05CF01821B930BA8
:102040008417950740F44081469FC001479F900D3B
:1020500011249193EECF81E880931E05E7E7F1E02C
:102060008491EBE8F1E0E490E9EAF1E0F490FF20FC
:1020700009F489C081110E94310DEF2DF0E0EE0FBF
:10208000FF1FE15BFE4FA591B4918C91E82209F40A
:102090007AC080914D02882309F48EC00E94EA0D17
:1020A000C0904802D0904902E0904A02F0904B0262
:1020B0009B01AC012C193D094E095F0969017A01A8
:1020C00033E3C316D104E104F10408F475C08BEDC9
:1020D00091E00E94250D10924D0240EDC41647E09C
:1020E000D406E104F10408F067C00E946E070E9464
:1020F000B50B82E090E090934502809344020E94E9
:10210000EA0D60934E0270934F02809350029093B9
:10211000510210924302A2E0B0E0B093FC04A093FD
:10212000FB04E4E0F0E0F0930005E093FF0480E0BE
:1021300091E090930C0580930B0510920E05109280
:102140000D051092FE041092FD040E94E61920E095
:1021500031E040E050E00E94461A6093030570931E
:1021600004058093050590930605109207051092CB
:1021700008051092090510920A05109210058AE0D0
:1021800080930F0519C00E94EA0D6B017C018091BC
:102190004D02811131C685EE91E00E94250D81E04E
:1021A00080934D0210924C02C0924802D092490294
:1021B000E0924A02F0924B028091440290914502D3
:1021C000892B09F0BCC00E94EA0D6B017C01809153
:1021D000020190910301A0910401B0910501A701B2
:1021E0009601281B390B4A0B5B0BDA01C9018031C0
:1021F0009742A105B10508F4A2C08FE092E00E94C9
:10220000250DC0920201D0920301E0920401F092E8
:102210000501CE0101960E94DC05FC80ED808F2D2A
:102220000E94210C6AE38EE093E00E949A018E2DB9
:102230000E94210C0E94010B80910001F8120DC038
:1022400025E08E2D622F0E94A91A382F809101015E
:102250000E94A91A381352C072C08F3F09F44EC0B1
:102260000E946E070E94B50B42E050E05093450279
:10227000409344020E94EA0D60934E0270934F0215
:1022800080935002909351021092430282E090E0BA
:102290009093FC048093FB04A4E0B0E0B0930005AD
:1022A000A093FF0480E091E090930C0580930B05D0
:1022B00010920E0510920D051092FE041092FD046E
:1022C0000E94E61920E031E040E050E00E94461A0A
:1022D00060930305709304058093050590930605AC
:1022E00010920705109208051092090510920A0530
:1022F000109210058AE080930F0521C08A818430F6
:10230000D1F48B818B31B9F40E946E070E94B50B1A
:1023100083E090E090934502809344020E94EA0D8E
:1023200060934E0270934F0280935002909351023B
:102330001092430204C06E2D8F2D0E94F0078091F1
:102340004402909145028130910508F4D1C4833054
:10235000910520F0039709F445C4CAC4E091FB0439
:10236000F091FC04E230F10508F4C2C420910105AB
:10237000309102058091460290914702820F931F8F
:1023800090930205809301052091FF043091000590
:102390008217930708F4ACC43297E730F10508F0D0
:1023A000A7C4E95BFF4F0C94DD1A9091030580915F
:1023B0000D05890F282FE1E0F1E02E9FC0012F9F2E
:1023C000900D11240E94460B4B015C01F090130507
:1023D0002091140580911105909112052F1508F494
:1023E000FCC36F2D70E0A50194010E946E03F3946D
:1023F000EFCF90901305E0901405E394E918F12CC9
:1024000080911405C0901105D09012058915E0F057
:10241000A92CB12C992D80E0B7010E94C91A809196
:102420000D05860FA82F41E051E0A49FC001A59F94
:10243000900D11240E94460B9B01AC01B501C60111
:102440000E946E039394DCCFC601C7C3B0901305FE
:1024500083E0C82ED12C80911405E0911105F091F4
:1024600012058B1520F1EB2CF12C80910D0590912C
:102470000E058E0D9F1DB6010E94B51A892B49F4D9
:102480002091030530910405409105055091060502
:1024900008C0209107053091080540910905509129
:1024A0000A05B701CF010E946E03B394D4CFCF01C8
:1024B00094C380910D0590910E0560910B0570916C
:1024C0000C05769567957727A0911305E091110586
:1024D000F09112058617970760F42091030530915B
:1024E00004054091050550910605BC016A0F711D58
:1024F00012C08090070590900805A0900905B09043
:102500000A057B01EA0EF11C0E94B51AB701681B8F
:10251000790BA5019401CF015AC3B0911305BC8773
:10252000809114052090110530901205EC858E17CE
:1025300008F468C18E2E912C20910D0530910E0566
:102540008216930649F080910B0590910C05821B31
:10255000930B8816990649F42091030530910405E0
:10256000409105055091060545C1D10112968D9106
:102570009C9113978816990608F00FC11D968C91AF
:102580001D971A96AC901A971896ED90FC90199793
:1025900017964C9017971B96BC91BD87C82ED12CCF
:1025A000F101F485FA8B8A116EC03C8523E0329FDD
:1025B000E00CF11C1124442009F44BC0512C612C77
:1025C000712CF701EB0FF11D608170E0762F66270B
:1025D000072E000C880B990BA30192010E94781A18
:1025E000B42FA32F922F88278D879E87AF87B88B14
:1025F000F701EC0DFD1D608170E0762F6627072E38
:10260000000C880B990BA30192010E94781AD90142
:1026100099278827AD84BE84CF84D888A82AB92A70
:10262000CA2ADB2AF7019A89E90FF11D608170E05F
:10263000762F6627072E000C880B990BA3019201B9
:102640000E94781A76016501C22AD32AE42AF52A63
:10265000A7C0F701AD85EA0FF11D8081F701EC0DF0
:10266000FD1DA0804A2D50E060E070E0BA015527C2
:102670004427582BF701BA89EB0FF11D80816A01BD
:102680007B01C82A8DC0C401880F991F880F991F2C
:10269000E80EF91EEA2DF0E0FC8BEB8B442009F4E8
:1026A0005CC0512C612C712CF701EC0DFD1D60817B
:1026B00070E0762F6627072E000C880B990BA3017C
:1026C00092010E94781AD22ECC24BB24AA24EB8932
:1026D000FC89EE0DFF1D608170E0762F6627072EC6
:1026E000000C880B990BA30192010E94781AD90162
:1026F00099278827A82AB92ACA2ADB2AF7012A8912
:10270000E20FF11D608170E0762F6627072E000C26
:10271000880B990BA30192010E94781AA22AB32A6E
:10272000C42AD52AF7013D85E30FF11D608170E0D1
:10273000762F6627072E000C880B990BA3019201B8
:102740000E94781AB42FA32F922F88277601650153
:10275000C82AD92AEA2AFB2A23C0F701EC0DFD1D5D
:102760008081EB89FC89EE0DFF1DA0804A2D50E091
:1027700060E070E0BA0155274427782BF7018A8979
:10278000E80FF11D8081482BF7019D85E90FF11DB0
:1027900080816A017B01D82A03C0C12CD12C76012B
:1027A0002E2D30E035952795C901330FAA0BBB0BB1
:1027B000BC01552744278D2D90E095958795092ECE
:1027C000000CAA0BBB0BBA2FA92F982F8827842B9C
:1027D000952BA62BB72BAC2CB12C950135952795B5
:1027E000A901330F660B770B9A01AB01282B392B0C
:1027F0004A2B5B2BB401C1010E946E03AC85AF5F15
:10280000AC878ECEC101E9C1E0900D05F0900E05B8
:10281000BAE0EB16F10408F077C1F701E25BFF4F75
:102820000C94DD1A88E290E00E94E31A8C01FC010E
:10283000108281E0818382E0828383E0838384E06D
:10284000848385E0858386E0868387E0878388E0CC
:10285000808789E081878AE082878BE083878CE0AC
:10286000848783E2858784E286878BE387878CE38E
:10287000808B83E5818B84E5828B8BE6838B8CE672
:10288000848B8DE6858B8EE6868B8FE6878B80E743
:10289000808F81E7818F82E7828F83E7838F84E750
:1028A000848F85E7858F86E7868F87E7878F80E629
:1028B00080A38FE581A388E482A387E483A380E3D8
:1028C00084A38FE285A388E186A387E187A3F8E24A
:1028D0001AC180E290E00E94E31A8C018DE0D801D9
:1028E0008C938EE011968C9311978FE012968C93B7
:1028F000129780E113968C93139781E114968C9331
:10290000149782E115968C93159783E116968C9314
:10291000169784E117968C93179785E118968C93F8
:10292000189786E119968C93199789E11A968C93DA
:102930001A978EE21B968C931B9781E31C968C93BF
:102940001C9786E41D968C931D9789E41E968C93A4
:102950001E978EE51F968C931F9781E650968C9359
:10296000509782E651968C93519783E652968C93BA
:10297000529784E653968C93539785E654968C939E
:10298000549786E655968C93559787E656968C9382
:10299000569788E657968C93579789E658968C9366
:1029A00058978AE659968C93599785E55A968C9351
:1029B0005A9782E55B968C935B978DE35C968C933C
:1029C0005C978AE35D968C935D9785E25E968C9327
:1029D0005E9782E25F968C93B0E27CC088E190E0E3
:1029E0000E94E31A8C018AE1F80180838BE18183E4
:1029F0008CE182838DE183838EE184838FE1858303
:102A000080E2868381E2878386E2808789E381870B
:102A10008EE3828781E5838786E5848787E58587DE
:102A200088E5868789E587878AE5808B8BE5818BBA
:102A30008CE5828B8DE5838B8AE4848B85E4858BA2
:102A400082E3868B8DE2878BF8E15DC080E190E0C8
:102A50000E94E31A8C0187E2D8018C9388E21196D8
:102A60008C93119789E212968C9312978AE21396AF
:102A70008C9313978BE214968C9314978CE2159693
:102A80008C93159783E316968C93169784E4179688
:102A90008C9317978BE418968C9318978CE419965F
:102AA0008C9319978DE41A968C931A978EE41B9643
:102AB0008C931B978FE41C968C931C9780E51D9636
:102AC0008C931D978FE31E968C931E9788E31F9619
:102AD0008C93B0E1B98B18C088E090E00E94E31AB3
:102AE0008C0184E3F801808385E3818386E382831C
:102AF00087E3838380E4848381E4858382E486831F
:102B000083E48783F8E0F98B25E0E216F104A0F472
:102B1000E0FC09C08090030590900405A090050595
:102B2000B09006050CC08090070590900805A09015
:102B30000905B0900A0503C0812C912C5401D02EB8
:102B40007801D7016D917D0170E0A501940180911C
:102B50001105909112050E946E038E2D8D19B98971
:102B60008B1778F301151105A1F1C8010E947B1B99
:102B700030C080910D0590910E058837910558F071
:102B800068E770E00E94B51A97E7F92EF81A20E07E
:102B900030E0A90111C0F82E9C01AFEFBFEF0E94F9
:102BA0009A1A27E730E040E050E00E94461AC90137
:102BB0000E94460B9B01AC01EF2DF0E0E05FFE4F61
:102BC0008081682F70E080911105909112050E941C
:102BD0006E0380911105909112050E94E3030E94FB
:102BE000C60C86C00E94EA0D6B017C0180914E02EA
:102BF00090914F02A0915002B0915102A70196010D
:102C0000281B390B4A0B5B0BDA01C901E091430227
:102C10004E2F50E04C31510508F058C0FA01E85AE7
:102C2000FF4F0C94DD1A803D9740A105B10508F4D3
:102C30005FC064E070E083EB94E010C0803D97409B
:102C4000A105B10508F454C064E070E083E894E0A5
:102C50000E94DA0764E070E087E794E00E94DA07F8
:102C600035C0803D9740A105B10508F441C01FC0A3
:102C7000803D9740A105B105D8F10E946E0726C09E
:102C8000883C9105A105B10598F164E070E083EB03
:102C900094E00E94DA0764E070E083E894E00E9428
:102CA000DA0764E070E087E794E00E94DA070E94A8
:102CB000F80C0CC0883C9105A105B105C8F0DDCF2A
:102CC000803A9F40A105B10598F0D7CF809143028B
:102CD0008F5F80934302C0924E02D0924F02E092E7
:102CE0005002F09251028C3118F081E00E94D3081A
:102CF00087ED94E00E94BF0A83EE94E00E94BF0A31
:102D00008FEE94E00E94BF0A8FEB94E00E94BF0A0E
:102D10008BEC94E00E94BF0A8BE994E00E94BF0A0A
:102D200087EA94E00E94BF0A83EB94E00E94BF0A06
:102D300083E894E00E94BF0A8FE894E00E94BF0AF3
:102D400083E594E00E94BF0A8FE594E00E94BF0AE9
:102D50008BE694E00E94BF0A87E794E00E94BF0AD6
:102D60008FE294E00E94BF0A8BE394E00E94BF0AC6
:102D700087E494E00E94BF0A87E194E00E94BF0AC2
:102D800083E294E00E94BF0A83EF93E00E94BF0AAF
:102D90008FEF93E00E94BF0A8BE094E00E94BF0A8D
:102DA00087EE93E00E94BF0A8BED93E00E94BF0A7A
:102DB0008FEC93E00E94BF0A87EB93E00E94BF0A6A
:102DC00083EC93E00E94BF0A0E94EA0D2091520218
:102DD00030915302AB01421B530B50934702409377
:102DE0004602609352027093530280935402909370
:102DF00055020E94090232C980914802909149020D
:102E0000A0914A02B0914B02A7019601281B390BF1
:102E10004A0B5B0BCA01B901603D37E073078105BE
:102E2000910508F4C9C928EE33E040E050E00E9463
:102E3000781A2F5F80914C02281709F4BDC920939E
:102E40004C02809142028F5F8C3018F480934202D2
:102E500002C01092420281EF91E00E94EF0A80913D
:102E600042020E94210C0E94010B0E94BB08A4C9CF
:102E7000FC01908190539A3008F090E0818180535A
:102E80002AE0929F800D1124089580911F05909152
:102E900020050E947B1B80911D0587FD03C060E01B
:102EA0000C94890D0895CF93DF9310921103109223
:102EB000100388EE93E0A0E0B0E0809312039093BB
:102EC0001303A0931403B09315032CE831E030935F
:102ED0000F0320930E0325EC30E030931B03209367
:102EE0001A0324EC30E030931D0320931C0320ECE4
:102EF00030E030931F0320931E0321EC30E0309329
:102F000021032093200322EC30E03093230320930D
:102F1000220326EC30E03093250320932403109203
:102F20002703109228031092290310922A0310926B
:102F3000AE031092AD038093AF039093B003A093C0
:102F4000B103B093B2038EE991E09093AC03809308
:102F5000AB031092180510921E05109225051092D1
:102F60002605109227051092280581E080932405FC
:102F7000809321051092220592E09093230580937F
:102F80001705C8E6D1E0D0931C05C0931B0588E661
:102F900091E00E94E31A9093200580931F0500970B
:102FA00069F0FC019E01119221503040E1F788E761
:102FB00090E090931A058093190508C010921C05A3
:102FC00010921B0510921A051092190586E0809345
:102FD0001D0580911805882341F061E086E00E947C
:102FE000890D60E086E00E945A0DE7EAF1E0E49185
:102FF000F0E0EE0FFF1FE956FE4F2591349187E177
:1030000095E030932A0520932905E9E8F1E0E49161
:10301000E0932B051092FC041092FB041092FE0426
:103020001092FD04909312058093110510921305E0
:1030300027E7209314054AEE58E050931605409375
:1030400015051092F0041092EF049093F804809309
:10305000F7041092F90435E03093FA041092E40476
:103060001092E3049093EC048093EB0437E03093E8
:10307000ED0438E03093EE041092D8041092D70497
:103080009093E0048093DF043AE03093E1043BE066
:103090003093E2041092CC041092CB049093D404A9
:1030A0008093D3043CE03093D50432E13093D604CE
:1030B0001092C0041092BF049093C8048093C70478
:1030C00034E13093C90437E13093CA041092B40458
:1030D0001092B3049093BC048093BB0438E1309306
:1030E000BD043CE13093BE041092A8041092A704E2
:1030F0009093B0048093AF043DE13093B1043FE17D
:103100003093B20410929C0410929B049093A404F8
:103110008093A30430E23093A50433E23093A604F5
:103120001092900410928F049093980480939704C7
:1031300034E2309399043AE230939A041092840472
:103140001092830490938C0480938B043BE2309321
:103150008D043FE230938E0410927804109277042D
:103160009093800480937F0430E33093810432E3B2
:103170003093820410926C0410926B049093740448
:103180008093730433E33093750435E3309376040E
:103190001092600410925F04909368048093670417
:1031A00037E33093690438E330936A04109254048F
:1031B0001092530490935C0480935B0430935D04FD
:1031C0003BE330935E0410924804109247049093BE
:1031D000500480934F043CE3309351043EE330931A
:1031E000520410923C0410923B0490934404809348
:1031F00043043FE33093450432E430934604109295
:10320000300410922F04909338048093370433E4F1
:103210003093390437E430933A0410922404109226
:10322000230490932C0480932B0438E430932D04D2
:103230003DE430932E0410921804109217049093DA
:10324000200480931F043EE43093210433E530933F
:10325000220410920C0410920B0490931404809397
:10326000130434E53093150438E5309316041092B6
:1032700000041092FF03909308048093070439E53B
:10328000309309043CE530930A041092F403109241
:10329000F3039093FC038093FB033DE53093FD0320
:1032A0003FE53093FE031092E8031092E7039093FA
:1032B000F0038093EF0330E63093F10332E630936E
:1032C000F2031092DC031092DB039093E4038093EB
:1032D000E30333E63093E50336E63093E6031092DA
:1032E000D0031092CF039093D8038093D70337E68F
:1032F0003093D9033BE63093DA031092C403109263
:10330000C3039093CC038093CB033CE63093CD036F
:1033100030E73093CE031092B8031092B703909326
:10332000C0038093BF0382E78093C1032093C2034D
:10333000DF91CF9108958F929F92AF92BF92CF92DB
:10334000DF92EF92FF92CF93DF93EC016881798156
:103350008A819B81611571058105910521F464E2E3
:1033600079ED8BE597E02DE133EF41E050E00E94ED
:10337000461A49015A019B01AC01A7EAB1E40E9437
:10338000651A6B017C01ACEEB4EFA50194010E94BB
:10339000731ADC01CB018C0D9D1DAE1DBF1DB7FF47
:1033A00003C00197A109B04888839983AA83BB838E
:1033B000BC01CD019F77DF91CF91FF90EF90DF901F
:1033C000CF90BF90AF909F908F9008958F929F92D3
:1033D000AF92BF92CF92DF92EF92FF92609106017F
:1033E00070910701809108019091090161157105A3
:1033F0008105910521F464E279ED8BE597E02DE1FB
:1034000033EF41E050E00E94461A49015A019B0106
:10341000AC01A7EAB1E40E94651A6B017C01ACEE35
:10342000B4EFA50194010E94731ADC01CB018C0D4D
:103430009D1DAE1DBF1DB7FF03C00197A109B04878
:103440008093060190930701A0930801B0930901AE
:10345000BC01CD019F77FF90EF90DF90CF90BF90A0
:10346000AF909F908F90089560930601709307012D
:1034700080930801909309010895FB01DC0102C0CB
:1034800005900D9241505040D8F70895052E97FBB6
:103490001EF400940E945D1A57FD07D00E94781A0E
:1034A00007FC03D04EF40C945D1A5095409530956E
:1034B00021953F4F4F4F5F4F0895909580957095A0
:1034C00061957F4F8F4F9F4F08950E949A1AA59F35
:1034D000900DB49F900DA49F800D911D112408950F
:1034E000B7FF0C94651A0E94651A821B930B08950E
:1034F000A1E21A2EAA1BBB1BFD010DC0AA1FBB1FF8
:10350000EE1FFF1FA217B307E407F50720F0A21B69
:10351000B30BE40BF50B661F771F881F991F1A94D6
:1035200069F760957095809590959B01AC01BD0100
:10353000CF010895A29FB001B39FC001A39F700D5A
:10354000811D1124911DB29F700D811D1124911DAB
:103550000895991B79E004C0991F961708F0961BEF
:10356000881F7A95C9F780950895AA1BBB1B51E166
:1035700007C0AA1FBB1FA617B70710F0A61BB70BE3
:10358000881F991F5A95A9F780959095BC01CD0188
:10359000089597FB072E16F4009407D077FD09D005
:1035A0000E94B51A07FC05D03EF4909581959F4F77
:1035B0000895709561957F4F0895EE0FFF1F059058
:1035C000F491E02D09940F931F93CF93DF938230F2
:1035D000910510F482E090E0E0912F05F091300524
:1035E00020E030E0A0E0B0E0309719F14081518157
:1035F0000281138148175907C8F08417950769F4A9
:10360000109731F012960C93129713961C9327C0C3
:1036100000932F051093300522C02115310519F0B4
:103620004217530718F49A01BD01EF01DF01F801B9
:10363000DBCF21153105F9F0281B390B243031057A
:1036400080F48A819B816115710521F0FB019383D0
:10365000828304C09093300580932F05FE0132963B
:1036600044C0FE01E20FF31F819391932250310970
:10367000398328833AC020912D0530912E05232BC4
:1036800041F420910C0130910D0130932E052093CF
:103690002D0520910A0130910B012115310541F4CE
:1036A0002DB73EB740910E0150910F01241B350BF1
:1036B000E0912D05F0912E05E217F307A0F42E1BE3
:1036C0003F0B2817390778F0AC014E5F5F4F241786
:1036D000350748F04E0F5F1F50932E0540932D0580
:1036E0008193919302C0E0E0F0E0CF01DF91CF91B0
:1036F0001F910F910895CF93DF93009709F481C034
:10370000FC01329713821282A0912F05B0913005EF
:10371000109781F420813181820F931F20912D0514
:1037200030912E052817390751F5F0932E05E093B7
:103730002D0567C0ED0120E030E0CE17DF0740F433
:103740004A815B819E0141155105F1F0EA01F5CFF7
:10375000D383C28340815181840F951FC817D90735
:1037600059F488819981840F951F029691838083F3
:103770008A819B81938382832115310529F4F093FB
:103780003005E0932F053DC0E901FB83EA834991B1
:103790005991C40FD51FEC17FD0761F48081918109
:1037A000840F951F0296E901998388838281938112
:1037B0009B838A83E0E0F0E012968D919C911397B1
:1037C000009719F0FD01DC01F7CF8D919C911197C5
:1037D0009D012E5F3F4F820F931F20912D05309149
:1037E0002E052817390769F4309729F4109230050F
:1037F00010922F0502C013821282B0932E05A0935F
:103800002D05DF91CF91089581E090E0F8940C941C
:10381000091C10E0CCEDD0E004C0FE010E94DD1ACE
:0C3820002196CD3DD107C9F7F894FFCFE9
:10382C00FFFF008000000100000000003105800057
:10383C000B0A0908070605040302010017182F30AC
:10384C0047485F6077767574737271706F6E6D6CCC
:10385C006B54533C3B24230C0D0E0F1011121314FC
:10386C001516192E3146495E616263646566676898
:10387C00696A55523D3A252221201F1E1D1C1B1A18
:10388C002D32454A5D5C5B5A59585756513E392684
:10389C002728292A2B2C33444B4C4D4E4F503F3864
:1038AC003736353443424140000000009A0107018D
:1038BC003101E70162014001540100000000A00247
:1038CC007302D00247026B025702480253746172B2
:1038DC0074696E672E2E2E00525443206C6F7374D5
:1038EC0020706F7765722C206C657473207365740F
:1038FC00207468652074696D652100427574746F5D
:10390C006E20555000427574746F6E20444F574EA4
:10391C00005570646174696E672074696D65206808
:10392C006F7572206F666673657420746F20004328
:10393C006865636B696E67207468652074696D6572
:10394C002E2E2E005570646174696E672074686544
:0E395C002074696D6520746F20000D0A000054
:107E0000112484B714BE81FFF0D085E080938100F7
:107E100082E08093C00088E18093C10086E0809377
:107E2000C20080E18093C4008EE0C9D0259A86E02C
:107E300020E33CEF91E0309385002093840096BBD3
:107E4000B09BFECF1D9AA8958150A9F7CC24DD24C4
:107E500088248394B5E0AB2EA1E19A2EF3E0BF2EE7
:107E6000A2D0813461F49FD0082FAFD0023811F036
:107E7000013811F484E001C083E08DD089C08234E0
:107E800011F484E103C0853419F485E0A6D080C0E4
:107E9000853579F488D0E82EFF2485D0082F10E0AE
:107EA000102F00270E291F29000F111F8ED06801E7
:107EB0006FC0863521F484E090D080E0DECF843638
:107EC00009F040C070D06FD0082F6DD080E0C81688
:107ED00080E7D80618F4F601B7BEE895C0E0D1E017
:107EE00062D089930C17E1F7F0E0CF16F0E7DF06D8
:107EF00018F0F601B7BEE89568D007B600FCFDCFD4
:107F0000A601A0E0B1E02C9130E011968C91119780
:107F100090E0982F8827822B932B1296FA010C0160
:107F200087BEE89511244E5F5F4FF1E0A038BF0790
:107F300051F7F601A7BEE89507B600FCFDCF97BE46
:107F4000E89526C08437B1F42ED02DD0F82E2BD052
:107F50003CD0F601EF2C8F010F5F1F4F84911BD097
:107F6000EA94F801C1F70894C11CD11CFA94CF0C13
:107F7000D11C0EC0853739F428D08EE10CD085E9AC
:107F80000AD08FE07ACF813511F488E018D01DD067
:107F900080E101D065CF982F8091C00085FFFCCF94
:107FA0009093C60008958091C00087FFFCCF809118
:107FB000C00084FD01C0A8958091C6000895E0E648
:107FC000F0E098E1908380830895EDDF803219F02E
:107FD00088E0F5DFFFCF84E1DECF1F93182FE3DFCA
:107FE0001150E9F7F2DF1F91089580E0E8DFEE27F6
:047FF000FF270994CA
:027FFE00040479
:0400000300007E007B
:00000001FF
